{
  "contractName": "Auction",
  "abi": [
    {
      "inputs": [
        {
          "internalType": "address",
          "name": "_owner",
          "type": "address"
        },
        {
          "internalType": "uint256",
          "name": "_bidIncrement",
          "type": "uint256"
        },
        {
          "internalType": "uint256",
          "name": "_startBlock",
          "type": "uint256"
        },
        {
          "internalType": "uint256",
          "name": "_endBlock",
          "type": "uint256"
        },
        {
          "internalType": "string",
          "name": "_ipfsHash",
          "type": "string"
        }
      ],
      "stateMutability": "nonpayable",
      "type": "constructor"
    },
    {
      "anonymous": false,
      "inputs": [
        {
          "indexed": false,
          "internalType": "address",
          "name": "bidder",
          "type": "address"
        },
        {
          "indexed": false,
          "internalType": "uint256",
          "name": "bid",
          "type": "uint256"
        },
        {
          "indexed": false,
          "internalType": "address",
          "name": "highestBidder",
          "type": "address"
        },
        {
          "indexed": false,
          "internalType": "uint256",
          "name": "highestBid",
          "type": "uint256"
        },
        {
          "indexed": false,
          "internalType": "uint256",
          "name": "highestBindingBid",
          "type": "uint256"
        }
      ],
      "name": "LogBid",
      "type": "event"
    },
    {
      "anonymous": false,
      "inputs": [],
      "name": "LogCanceled",
      "type": "event"
    },
    {
      "anonymous": false,
      "inputs": [
        {
          "indexed": false,
          "internalType": "address",
          "name": "withdrawer",
          "type": "address"
        },
        {
          "indexed": false,
          "internalType": "address",
          "name": "withdrawalAccount",
          "type": "address"
        },
        {
          "indexed": false,
          "internalType": "uint256",
          "name": "amount",
          "type": "uint256"
        }
      ],
      "name": "LogWithdrawal",
      "type": "event"
    },
    {
      "inputs": [],
      "name": "bidIncrement",
      "outputs": [
        {
          "internalType": "uint256",
          "name": "",
          "type": "uint256"
        }
      ],
      "stateMutability": "view",
      "type": "function"
    },
    {
      "inputs": [],
      "name": "canceled",
      "outputs": [
        {
          "internalType": "bool",
          "name": "",
          "type": "bool"
        }
      ],
      "stateMutability": "view",
      "type": "function"
    },
    {
      "inputs": [],
      "name": "endBlock",
      "outputs": [
        {
          "internalType": "uint256",
          "name": "",
          "type": "uint256"
        }
      ],
      "stateMutability": "view",
      "type": "function"
    },
    {
      "inputs": [
        {
          "internalType": "address",
          "name": "",
          "type": "address"
        }
      ],
      "name": "fundsByBidder",
      "outputs": [
        {
          "internalType": "uint256",
          "name": "",
          "type": "uint256"
        }
      ],
      "stateMutability": "view",
      "type": "function"
    },
    {
      "inputs": [],
      "name": "highestBidder",
      "outputs": [
        {
          "internalType": "address",
          "name": "",
          "type": "address"
        }
      ],
      "stateMutability": "view",
      "type": "function"
    },
    {
      "inputs": [],
      "name": "highestBindingBid",
      "outputs": [
        {
          "internalType": "uint256",
          "name": "",
          "type": "uint256"
        }
      ],
      "stateMutability": "view",
      "type": "function"
    },
    {
      "inputs": [],
      "name": "ipfsHash",
      "outputs": [
        {
          "internalType": "string",
          "name": "",
          "type": "string"
        }
      ],
      "stateMutability": "view",
      "type": "function"
    },
    {
      "inputs": [],
      "name": "owner",
      "outputs": [
        {
          "internalType": "address",
          "name": "",
          "type": "address"
        }
      ],
      "stateMutability": "view",
      "type": "function"
    },
    {
      "inputs": [],
      "name": "ownerHasWithdrawn",
      "outputs": [
        {
          "internalType": "bool",
          "name": "",
          "type": "bool"
        }
      ],
      "stateMutability": "view",
      "type": "function"
    },
    {
      "inputs": [],
      "name": "startBlock",
      "outputs": [
        {
          "internalType": "uint256",
          "name": "",
          "type": "uint256"
        }
      ],
      "stateMutability": "view",
      "type": "function"
    },
    {
      "inputs": [
        {
          "internalType": "address",
          "name": "_origin",
          "type": "address"
        }
      ],
      "name": "placeBid",
      "outputs": [
        {
          "internalType": "bool",
          "name": "",
          "type": "bool"
        }
      ],
      "stateMutability": "payable",
      "type": "function"
    },
    {
      "inputs": [
        {
          "internalType": "address",
          "name": "_origin",
          "type": "address"
        }
      ],
      "name": "withdraw",
      "outputs": [
        {
          "internalType": "bool",
          "name": "",
          "type": "bool"
        }
      ],
      "stateMutability": "nonpayable",
      "type": "function"
    },
    {
      "inputs": [
        {
          "internalType": "address",
          "name": "_origin",
          "type": "address"
        }
      ],
      "name": "cancelAuction",
      "outputs": [
        {
          "internalType": "bool",
          "name": "",
          "type": "bool"
        }
      ],
      "stateMutability": "nonpayable",
      "type": "function"
    }
  ],
  "bytecode": "0x60806040523480156200001157600080fd5b5060405162000b3f38038062000b3f83398101604081905262000034916200016a565b8183106200004157600080fd5b438310156200004f57600080fd5b6001600160a01b0385166200006357600080fd5b600080546001600160a01b0319166001600160a01b0387161790556004849055600183905560028290558051620000a2906003906020840190620000ae565b505050505050620002c5565b828054620000bc9062000288565b90600052602060002090601f016020900481019282620000e057600085556200012b565b82601f10620000fb57805160ff19168380011785556200012b565b828001600101855582156200012b579182015b828111156200012b5782518255916020019190600101906200010e565b50620001399291506200013d565b5090565b5b808211156200013957600081556001016200013e565b634e487b7160e01b600052604160045260246000fd5b600080600080600060a086880312156200018357600080fd5b85516001600160a01b03811681146200019b57600080fd5b602087810151604089015160608a015160808b015194995091975095509350906001600160401b0380821115620001d157600080fd5b818901915089601f830112620001e657600080fd5b815181811115620001fb57620001fb62000154565b604051601f8201601f19908116603f0116810190838211818310171562000226576200022662000154565b816040528281528c868487010111156200023f57600080fd5b600093505b8284101562000263578484018601518185018701529285019262000244565b82841115620002755760008684830101525b8096505050505050509295509295909350565b600181811c908216806200029d57607f821691505b60208210811415620002bf57634e487b7160e01b600052602260045260246000fd5b50919050565b61086a80620002d56000396000f3fe6080604052600436106100c25760003560e01c806391f901571161007f578063ce10cf8011610059578063ce10cf80146101ff578063d22cf3a41461022c578063e49401571461024c578063f5b56c561461025f57600080fd5b806391f90157146101a2578063b3cc167a146101c7578063c623674f146101dd57600080fd5b8063083c6323146100c75780631bf822e5146100f05780633f9942ff1461011a57806348cd4cb11461013457806351cff8d91461014a5780638da5cb5b1461016a575b600080fd5b3480156100d357600080fd5b506100dd60025481565b6040519081526020015b60405180910390f35b3480156100fc57600080fd5b5060085461010a9060ff1681565b60405190151581526020016100e7565b34801561012657600080fd5b5060055461010a9060ff1681565b34801561014057600080fd5b506100dd60015481565b34801561015657600080fd5b5061010a61016536600461073c565b610275565b34801561017657600080fd5b5060005461018a906001600160a01b031681565b6040516001600160a01b0390911681526020016100e7565b3480156101ae57600080fd5b5060055461018a9061010090046001600160a01b031681565b3480156101d357600080fd5b506100dd60045481565b3480156101e957600080fd5b506101f261047f565b6040516100e79190610765565b34801561020b57600080fd5b506100dd61021a36600461073c565b60066020526000908152604090205481565b34801561023857600080fd5b5061010a61024736600461073c565b61050d565b61010a61025a36600461073c565b610589565b34801561026b57600080fd5b506100dd60075481565b60006002544310158061028a575060055460ff165b61029357600080fd5b600554600090819060ff16156102c55750506001600160a01b03821660009081526006602052604090205482906103b9565b6000546001600160a01b038581169116141561030757505060055460075460088054600160ff199091161790556101009091046001600160a01b0316906103b9565b6005546001600160a01b0385811661010090920416141561039b576005546008546101009091046001600160a01b0316925060ff1615610367575060055461010090046001600160a01b03166000908152600660205260409020546103b9565b60075460055461010090046001600160a01b031660009081526006602052604090205461039491906107d0565b90506103b9565b50506001600160a01b03821660009081526006602052604090205482905b600081116103c657600080fd5b6001600160a01b038216600090815260066020526040812080548392906103ee9084906107d0565b90915550506040516001600160a01b0385169082156108fc029083906000818181858888f19350505050158015610429573d6000803e3d6000fd5b50604080516001600160a01b038087168252841660208201529081018290527f0ec497a8ae5b1ba29c60470ef651def995fac3deebbdcc56c47a4e5f51a4c2bd9060600160405180910390a15060019392505050565b6003805461048c906107e7565b80601f01602080910402602001604051908101604052809291908181526020018280546104b8906107e7565b80156105055780601f106104da57610100808354040283529160200191610505565b820191906000526020600020905b8154815290600101906020018083116104e857829003601f168201915b505050505081565b6000805482906001600160a01b0380831691161461052a57600080fd5b600254431061053857600080fd5b60055460ff161561054857600080fd5b6005805460ff191660011790556040517f462b6ca7f632601af1295aeb320851f50e8e630a309173f23535845ea4bfb3b990600090a1600191505b50919050565b600060015443101561059a57600080fd5b60025443106105a857600080fd5b60055460ff16156105b857600080fd5b60005482906001600160a01b03808316911614156105d557600080fd5b6001600160a01b0383166000908152600660205260408120546105f990349061081c565b9050600754811161060957600080fd5b6005546001600160a01b036101009091048116600090815260066020526040808220549287168252902082905580821161065c576106546004548361064e919061081c565b82610724565b6007556106b5565b6005546001600160a01b0386811661010090920416146106b25760058054610100600160a81b0319166101006001600160a01b038816021790556004546106ae9083906106a9908461081c565b610724565b6007555b50805b600554600754604080516001600160a01b03808a16825260208201879052610100909404909316908301526060820183905260808201527ff152f4ff5e488c55370a2d53925a55055228ebd8ec95bd0251bbb299e48786b09060a00160405180910390a1506001949350505050565b60008183106107335781610735565b825b9392505050565b60006020828403121561074e57600080fd5b81356001600160a01b038116811461073557600080fd5b600060208083528351808285015260005b8181101561079257858101830151858201604001528201610776565b818111156107a4576000604083870101525b50601f01601f1916929092016040019392505050565b634e487b7160e01b600052601160045260246000fd5b6000828210156107e2576107e26107ba565b500390565b600181811c908216806107fb57607f821691505b6020821081141561058357634e487b7160e01b600052602260045260246000fd5b6000821982111561082f5761082f6107ba565b50019056fea2646970667358221220f8bfeffd632b71a008a5e71499bf157e34dfe9ee65743a12d2899d6990053a1164736f6c63430008090033",
  "immutableReferences": {},
  "source": "// SPDX-License-Identifier: MIT\r\npragma solidity >=0.4.21 <0.9.0;\r\n\r\nimport \"@openzeppelin/contracts/utils/math/Math.sol\";\r\n\r\ncontract Auction {\r\n    // using Math for uint256;\r\n\r\n    // static\r\n    address public owner;\r\n    uint256 public startBlock;\r\n    uint256 public endBlock;\r\n    string public ipfsHash;\r\n    uint256 public bidIncrement;\r\n\r\n    // state\r\n    bool public canceled;\r\n    address public highestBidder;\r\n    mapping(address => uint256) public fundsByBidder;\r\n    uint256 public highestBindingBid;\r\n    bool public ownerHasWithdrawn;\r\n\r\n    event LogBid(\r\n        address bidder,\r\n        uint256 bid,\r\n        address highestBidder,\r\n        uint256 highestBid,\r\n        uint256 highestBindingBid\r\n    );\r\n\r\n    event LogWithdrawal(\r\n        address withdrawer,\r\n        address withdrawalAccount,\r\n        uint256 amount\r\n    );\r\n\r\n    event LogCanceled();\r\n\r\n    constructor(\r\n        address _owner,\r\n        uint256 _bidIncrement,\r\n        uint256 _startBlock,\r\n        uint256 _endBlock,\r\n        string memory _ipfsHash\r\n    ) {\r\n        require(_startBlock < _endBlock);\r\n        require(_startBlock >= block.number);\r\n        require(_owner != address(0));\r\n\r\n        owner = _owner;\r\n        bidIncrement = _bidIncrement;\r\n        startBlock = _startBlock;\r\n        endBlock = _endBlock;\r\n        ipfsHash = _ipfsHash;\r\n    }\r\n\r\n    modifier onlyAfterStart() {\r\n        require(block.number >= startBlock);\r\n        _;\r\n    }\r\n\r\n    modifier onlyBeforeEnd() {\r\n        require(block.number < endBlock);\r\n        _;\r\n    }\r\n\r\n    modifier onlyNotCanceled() {\r\n        require(!canceled);\r\n        _;\r\n    }\r\n\r\n    modifier onlyNotOwner(address _origin) {\r\n        require(_origin != owner);\r\n        _;\r\n    }\r\n\r\n    function placeBid(address _origin)\r\n        payable\r\n        public\r\n        onlyAfterStart\r\n        onlyBeforeEnd\r\n        onlyNotCanceled\r\n        onlyNotOwner(_origin)\r\n        returns (bool)\r\n    {\r\n        uint newBid = fundsByBidder[_origin] + msg.value;\r\n        require(newBid > highestBindingBid);\r\n\r\n        uint highestBid = fundsByBidder[highestBidder];\r\n        fundsByBidder[_origin] = newBid;\r\n\r\n        if (newBid <= highestBid) {\r\n            highestBindingBid = Math.min(newBid + bidIncrement, highestBid);\r\n        } else {\r\n            if (_origin != highestBidder) {\r\n                highestBidder = _origin;\r\n                highestBindingBid = Math.min(newBid, highestBid + bidIncrement);\r\n            }\r\n            highestBid = newBid;\r\n        }\r\n\r\n        emit LogBid(_origin, newBid, highestBidder, highestBid, highestBindingBid);\r\n        return true;\r\n    }\r\n\r\n    function withdraw(address _origin) public returns (bool) {\r\n        require(block.number >= endBlock || canceled);\r\n\r\n        address withdrawalAccount;\r\n        uint withdrawalAmount;\r\n\r\n        if (canceled) {\r\n            withdrawalAccount = _origin;\r\n            withdrawalAmount = fundsByBidder[withdrawalAccount];\r\n        } else {\r\n            if (_origin == owner) {\r\n                withdrawalAccount = highestBidder;\r\n                withdrawalAmount = highestBindingBid;\r\n                ownerHasWithdrawn = true;\r\n            } else if (_origin == highestBidder) {\r\n                withdrawalAccount = highestBidder;\r\n                if (ownerHasWithdrawn) {\r\n                    withdrawalAmount = fundsByBidder[highestBidder];\r\n                } else {\r\n                    withdrawalAmount = fundsByBidder[highestBidder] - highestBindingBid;\r\n                }\r\n            } else {\r\n                withdrawalAccount = _origin;\r\n                withdrawalAmount = fundsByBidder[withdrawalAccount];\r\n            }\r\n        }\r\n\r\n        require(withdrawalAmount > 0);\r\n\r\n        fundsByBidder[withdrawalAccount] -= withdrawalAmount;\r\n        payable(_origin).transfer(withdrawalAmount);\r\n\r\n        emit LogWithdrawal(_origin, withdrawalAccount, withdrawalAmount);\r\n        return true;\r\n    }\r\n\r\n    modifier onlyOwner(address _origin) {\r\n        require(_origin == owner);\r\n        _;\r\n    }\r\n\r\n    function cancelAuction(address _origin) public onlyOwner(_origin) onlyBeforeEnd onlyNotCanceled returns (bool) {\r\n        canceled = true;\r\n        emit LogCanceled();\r\n        return true;\r\n    }\r\n}\r\n",
  "sourcePath": "E:\\ckb\\dapp\\eth-auction-dapp\\contracts\\Auction.sol",
  "compiler": {
    "name": "solc",
    "version": "0.8.9+commit.e5eed63a.Emscripten.clang"
  },
  "schemaVersion": "3.4.3",
  "updatedAt": "2021-10-07T13:52:23.658Z",
  "devdoc": {
    "kind": "dev",
    "methods": {},
    "version": 1
  },
  "userdoc": {
    "kind": "user",
    "methods": {},
    "version": 1
  }
}