{
  "contractName": "AuctionRepository",
  "abi": [
    {
      "anonymous": false,
      "inputs": [
        {
          "indexed": false,
          "internalType": "address",
          "name": "owner",
          "type": "address"
        },
        {
          "indexed": false,
          "internalType": "uint256",
          "name": "numAuctions",
          "type": "uint256"
        }
      ],
      "name": "AuctionCreated",
      "type": "event"
    },
    {
      "inputs": [
        {
          "internalType": "uint256",
          "name": "",
          "type": "uint256"
        }
      ],
      "name": "auctions",
      "outputs": [
        {
          "internalType": "contract Auction",
          "name": "",
          "type": "address"
        }
      ],
      "stateMutability": "view",
      "type": "function",
      "constant": true
    },
    {
      "inputs": [
        {
          "internalType": "uint256",
          "name": "_bidIncrement",
          "type": "uint256"
        },
        {
          "internalType": "uint256",
          "name": "_startBlock",
          "type": "uint256"
        },
        {
          "internalType": "uint256",
          "name": "_endBlock",
          "type": "uint256"
        },
        {
          "internalType": "string",
          "name": "_ipfsHash",
          "type": "string"
        }
      ],
      "name": "createAuction",
      "outputs": [],
      "stateMutability": "nonpayable",
      "type": "function"
    },
    {
      "inputs": [],
      "name": "getAuctions",
      "outputs": [
        {
          "internalType": "contract Auction[]",
          "name": "",
          "type": "address[]"
        }
      ],
      "stateMutability": "view",
      "type": "function",
      "constant": true
    },
    {
      "inputs": [
        {
          "internalType": "uint256",
          "name": "_i",
          "type": "uint256"
        }
      ],
      "name": "getOwner",
      "outputs": [
        {
          "internalType": "address",
          "name": "",
          "type": "address"
        }
      ],
      "stateMutability": "view",
      "type": "function",
      "constant": true
    },
    {
      "inputs": [
        {
          "internalType": "uint256",
          "name": "_i",
          "type": "uint256"
        }
      ],
      "name": "getStartBlock",
      "outputs": [
        {
          "internalType": "uint256",
          "name": "",
          "type": "uint256"
        }
      ],
      "stateMutability": "view",
      "type": "function",
      "constant": true
    },
    {
      "inputs": [
        {
          "internalType": "uint256",
          "name": "_i",
          "type": "uint256"
        }
      ],
      "name": "getEndBlock",
      "outputs": [
        {
          "internalType": "uint256",
          "name": "",
          "type": "uint256"
        }
      ],
      "stateMutability": "view",
      "type": "function",
      "constant": true
    },
    {
      "inputs": [
        {
          "internalType": "uint256",
          "name": "_i",
          "type": "uint256"
        }
      ],
      "name": "getIpfsHash",
      "outputs": [
        {
          "internalType": "string",
          "name": "",
          "type": "string"
        }
      ],
      "stateMutability": "view",
      "type": "function",
      "constant": true
    },
    {
      "inputs": [
        {
          "internalType": "uint256",
          "name": "_i",
          "type": "uint256"
        }
      ],
      "name": "getBidIncrement",
      "outputs": [
        {
          "internalType": "uint256",
          "name": "",
          "type": "uint256"
        }
      ],
      "stateMutability": "view",
      "type": "function",
      "constant": true
    },
    {
      "inputs": [
        {
          "internalType": "uint256",
          "name": "_i",
          "type": "uint256"
        }
      ],
      "name": "getCanceled",
      "outputs": [
        {
          "internalType": "bool",
          "name": "",
          "type": "bool"
        }
      ],
      "stateMutability": "view",
      "type": "function",
      "constant": true
    },
    {
      "inputs": [
        {
          "internalType": "uint256",
          "name": "_i",
          "type": "uint256"
        }
      ],
      "name": "getHighestBidder",
      "outputs": [
        {
          "internalType": "address",
          "name": "",
          "type": "address"
        }
      ],
      "stateMutability": "view",
      "type": "function",
      "constant": true
    },
    {
      "inputs": [
        {
          "internalType": "uint256",
          "name": "_i",
          "type": "uint256"
        }
      ],
      "name": "getHighestBindingBid",
      "outputs": [
        {
          "internalType": "uint256",
          "name": "",
          "type": "uint256"
        }
      ],
      "stateMutability": "view",
      "type": "function",
      "constant": true
    },
    {
      "inputs": [
        {
          "internalType": "uint256",
          "name": "_i",
          "type": "uint256"
        }
      ],
      "name": "placeBid",
      "outputs": [
        {
          "internalType": "bool",
          "name": "",
          "type": "bool"
        }
      ],
      "stateMutability": "payable",
      "type": "function",
      "payable": true
    },
    {
      "inputs": [
        {
          "internalType": "uint256",
          "name": "_i",
          "type": "uint256"
        }
      ],
      "name": "withdraw",
      "outputs": [
        {
          "internalType": "bool",
          "name": "",
          "type": "bool"
        }
      ],
      "stateMutability": "nonpayable",
      "type": "function"
    },
    {
      "inputs": [
        {
          "internalType": "uint256",
          "name": "_i",
          "type": "uint256"
        }
      ],
      "name": "cancelAuction",
      "outputs": [
        {
          "internalType": "bool",
          "name": "",
          "type": "bool"
        }
      ],
      "stateMutability": "nonpayable",
      "type": "function"
    }
  ],
  "bytecode": "0x608060405234801561001057600080fd5b506118ca806100206000396000f3fe608060405260043610620000ef5760003560e01c80639979ef451162000089578063c750cb791162000060578063c750cb791462000297578063d450fbc914620002bc578063d7c0691914620002f0578063f248b3d2146200031757600080fd5b80639979ef451462000236578063c1a10419146200024d578063c41a360a146200027257600080fd5b8063571a26a011620000ca578063571a26a0146200018957806370d0503014620001c75780638c8ab7ad14620001ec57806396b5a755146200021157600080fd5b806301b2320e14620000f457806315cda1af146200012c5780632e1a7d4d1462000153575b600080fd5b3480156200010157600080fd5b50620001196200011336600462000a16565b6200033c565b6040519081526020015b60405180910390f35b3480156200013957600080fd5b50620001516200014b36600462000aa5565b620003de565b005b3480156200016057600080fd5b50620001786200017236600462000a16565b620004ae565b604051901515815260200162000123565b3480156200019657600080fd5b50620001ae620001a836600462000a16565b62000550565b6040516001600160a01b03909116815260200162000123565b348015620001d457600080fd5b5062000178620001e636600462000a16565b6200057b565b348015620001f957600080fd5b50620001196200020b36600462000a16565b620005f1565b3480156200021e57600080fd5b50620001786200023036600462000a16565b62000652565b620001786200024736600462000a16565b620006a3565b3480156200025a57600080fd5b50620001196200026c36600462000a16565b62000746565b3480156200027f57600080fd5b50620001ae6200029136600462000a16565b620007a7565b348015620002a457600080fd5b50620001ae620002b636600462000a16565b62000843565b348015620002c957600080fd5b50620002e1620002db36600462000a16565b620008a4565b60405162000123919062000bab565b348015620002fd57600080fd5b506200030862000943565b60405162000123919062000bc7565b3480156200032457600080fd5b50620001196200033636600462000a16565b620009a7565b600080828154811062000353576200035362000c16565b60009182526020918290200154604080516348cd4cb160e01b815290516001600160a01b03909216926348cd4cb192600480840193829003018186803b1580156200039d57600080fd5b505afa158015620003b2573d6000803e3d6000fd5b505050506040513d601f19601f82011682018060405250810190620003d8919062000c2c565b92915050565b60003385858585604051620003f39062000a08565b6200040395949392919062000c46565b604051809103906000f08015801562000420573d6000803e3d6000fd5b50600080546001810182558180527f290decd9548b62a8d60345a988386fc84ba6bc95484008f6362f93160ef3e5630180546001600160a01b0319166001600160a01b038416179055546040805133815260208101929092529192507f3249a06bd478adf780bb7930214ad005e9cfa517d63221c0b77f27199d1a58b3910160405180910390a15050505050565b6000808281548110620004c557620004c562000c16565b6000918252602090912001546040516351cff8d960e01b81523360048201526001600160a01b03909116906351cff8d9906024015b602060405180830381600087803b1580156200051557600080fd5b505af11580156200052a573d6000803e3d6000fd5b505050506040513d601f19601f82011682018060405250810190620003d8919062000c86565b600081815481106200056157600080fd5b6000918252602090912001546001600160a01b0316905081565b600080828154811062000592576200059262000c16565b6000918252602091829020015460408051633f9942ff60e01b815290516001600160a01b0390921692633f9942ff92600480840193829003018186803b158015620005dc57600080fd5b505afa1580156200052a573d6000803e3d6000fd5b600080828154811062000608576200060862000c16565b600091825260209182902001546040805163083c632360e01b815290516001600160a01b039092169263083c632392600480840193829003018186803b1580156200039d57600080fd5b600080828154811062000669576200066962000c16565b60009182526020909120015460405163348b3ce960e21b81523360048201526001600160a01b039091169063d22cf3a490602401620004fa565b6000808281548110620006ba57620006ba62000c16565b60009182526020909120015460405163e494015760e01b81523360048201526001600160a01b039091169063e49401579034906024016020604051808303818588803b1580156200070a57600080fd5b505af11580156200071f573d6000803e3d6000fd5b50505050506040513d601f19601f82011682018060405250810190620003d8919062000c86565b60008082815481106200075d576200075d62000c16565b6000918252602091829020015460408051637adab62b60e11b815290516001600160a01b039092169263f5b56c5692600480840193829003018186803b1580156200039d57600080fd5b6000808281548110620007be57620007be62000c16565b6000918252602091829020015460408051638da5cb5b60e01b815290516001600160a01b0390921692638da5cb5b92600480840193829003018186803b1580156200080857600080fd5b505afa1580156200081d573d6000803e3d6000fd5b505050506040513d601f19601f82011682018060405250810190620003d8919062000caa565b60008082815481106200085a576200085a62000c16565b60009182526020918290200154604080516391f9015760e01b815290516001600160a01b03909216926391f9015792600480840193829003018186803b1580156200080857600080fd5b606060008281548110620008bc57620008bc62000c16565b60009182526020822001546040805163c623674f60e01b815290516001600160a01b039092169263c623674f92600480840193829003018186803b1580156200090457600080fd5b505afa15801562000919573d6000803e3d6000fd5b505050506040513d6000823e601f3d908101601f19168201604052620003d8919081019062000cd5565b606060008054806020026020016040519081016040528092919081815260200182805480156200099d57602002820191906000526020600020905b81546001600160a01b031681526001909101906020018083116200097e575b5050505050905090565b6000808281548110620009be57620009be62000c16565b60009182526020918290200154604080516359e60b3d60e11b815290516001600160a01b039092169263b3cc167a92600480840193829003018186803b1580156200039d57600080fd5b610b3f8062000d5683390190565b60006020828403121562000a2957600080fd5b5035919050565b634e487b7160e01b600052604160045260246000fd5b604051601f8201601f1916810167ffffffffffffffff8111828210171562000a725762000a7262000a30565b604052919050565b600067ffffffffffffffff82111562000a975762000a9762000a30565b50601f01601f191660200190565b6000806000806080858703121562000abc57600080fd5b843593506020850135925060408501359150606085013567ffffffffffffffff81111562000ae957600080fd5b8501601f8101871362000afb57600080fd5b803562000b1262000b0c8262000a7a565b62000a46565b81815288602083850101111562000b2857600080fd5b8160208401602083013760006020838301015280935050505092959194509250565b60005b8381101562000b6757818101518382015260200162000b4d565b8381111562000b77576000848401525b50505050565b6000815180845262000b9781602086016020860162000b4a565b601f01601f19169290920160200192915050565b60208152600062000bc0602083018462000b7d565b9392505050565b6020808252825182820181905260009190848201906040850190845b8181101562000c0a5783516001600160a01b03168352928401929184019160010162000be3565b50909695505050505050565b634e487b7160e01b600052603260045260246000fd5b60006020828403121562000c3f57600080fd5b5051919050565b60018060a01b038616815284602082015283604082015282606082015260a06080820152600062000c7b60a083018462000b7d565b979650505050505050565b60006020828403121562000c9957600080fd5b8151801515811462000bc057600080fd5b60006020828403121562000cbd57600080fd5b81516001600160a01b038116811462000bc057600080fd5b60006020828403121562000ce857600080fd5b815167ffffffffffffffff81111562000d0057600080fd5b8201601f8101841362000d1257600080fd5b805162000d2362000b0c8262000a7a565b81815285602083850101111562000d3957600080fd5b62000d4c82602083016020860162000b4a565b9594505050505056fe60806040523480156200001157600080fd5b5060405162000b3f38038062000b3f83398101604081905262000034916200016a565b8183106200004157600080fd5b438310156200004f57600080fd5b6001600160a01b0385166200006357600080fd5b600080546001600160a01b0319166001600160a01b0387161790556004849055600183905560028290558051620000a2906003906020840190620000ae565b505050505050620002c5565b828054620000bc9062000288565b90600052602060002090601f016020900481019282620000e057600085556200012b565b82601f10620000fb57805160ff19168380011785556200012b565b828001600101855582156200012b579182015b828111156200012b5782518255916020019190600101906200010e565b50620001399291506200013d565b5090565b5b808211156200013957600081556001016200013e565b634e487b7160e01b600052604160045260246000fd5b600080600080600060a086880312156200018357600080fd5b85516001600160a01b03811681146200019b57600080fd5b602087810151604089015160608a015160808b015194995091975095509350906001600160401b0380821115620001d157600080fd5b818901915089601f830112620001e657600080fd5b815181811115620001fb57620001fb62000154565b604051601f8201601f19908116603f0116810190838211818310171562000226576200022662000154565b816040528281528c868487010111156200023f57600080fd5b600093505b8284101562000263578484018601518185018701529285019262000244565b82841115620002755760008684830101525b8096505050505050509295509295909350565b600181811c908216806200029d57607f821691505b60208210811415620002bf57634e487b7160e01b600052602260045260246000fd5b50919050565b61086a80620002d56000396000f3fe6080604052600436106100c25760003560e01c806391f901571161007f578063ce10cf8011610059578063ce10cf80146101ff578063d22cf3a41461022c578063e49401571461024c578063f5b56c561461025f57600080fd5b806391f90157146101a2578063b3cc167a146101c7578063c623674f146101dd57600080fd5b8063083c6323146100c75780631bf822e5146100f05780633f9942ff1461011a57806348cd4cb11461013457806351cff8d91461014a5780638da5cb5b1461016a575b600080fd5b3480156100d357600080fd5b506100dd60025481565b6040519081526020015b60405180910390f35b3480156100fc57600080fd5b5060085461010a9060ff1681565b60405190151581526020016100e7565b34801561012657600080fd5b5060055461010a9060ff1681565b34801561014057600080fd5b506100dd60015481565b34801561015657600080fd5b5061010a61016536600461073c565b610275565b34801561017657600080fd5b5060005461018a906001600160a01b031681565b6040516001600160a01b0390911681526020016100e7565b3480156101ae57600080fd5b5060055461018a9061010090046001600160a01b031681565b3480156101d357600080fd5b506100dd60045481565b3480156101e957600080fd5b506101f261047f565b6040516100e79190610765565b34801561020b57600080fd5b506100dd61021a36600461073c565b60066020526000908152604090205481565b34801561023857600080fd5b5061010a61024736600461073c565b61050d565b61010a61025a36600461073c565b610589565b34801561026b57600080fd5b506100dd60075481565b60006002544310158061028a575060055460ff165b61029357600080fd5b600554600090819060ff16156102c55750506001600160a01b03821660009081526006602052604090205482906103b9565b6000546001600160a01b038581169116141561030757505060055460075460088054600160ff199091161790556101009091046001600160a01b0316906103b9565b6005546001600160a01b0385811661010090920416141561039b576005546008546101009091046001600160a01b0316925060ff1615610367575060055461010090046001600160a01b03166000908152600660205260409020546103b9565b60075460055461010090046001600160a01b031660009081526006602052604090205461039491906107d0565b90506103b9565b50506001600160a01b03821660009081526006602052604090205482905b600081116103c657600080fd5b6001600160a01b038216600090815260066020526040812080548392906103ee9084906107d0565b90915550506040516001600160a01b0385169082156108fc029083906000818181858888f19350505050158015610429573d6000803e3d6000fd5b50604080516001600160a01b038087168252841660208201529081018290527f0ec497a8ae5b1ba29c60470ef651def995fac3deebbdcc56c47a4e5f51a4c2bd9060600160405180910390a15060019392505050565b6003805461048c906107e7565b80601f01602080910402602001604051908101604052809291908181526020018280546104b8906107e7565b80156105055780601f106104da57610100808354040283529160200191610505565b820191906000526020600020905b8154815290600101906020018083116104e857829003601f168201915b505050505081565b6000805482906001600160a01b0380831691161461052a57600080fd5b600254431061053857600080fd5b60055460ff161561054857600080fd5b6005805460ff191660011790556040517f462b6ca7f632601af1295aeb320851f50e8e630a309173f23535845ea4bfb3b990600090a1600191505b50919050565b600060015443101561059a57600080fd5b60025443106105a857600080fd5b60055460ff16156105b857600080fd5b60005482906001600160a01b03808316911614156105d557600080fd5b6001600160a01b0383166000908152600660205260408120546105f990349061081c565b9050600754811161060957600080fd5b6005546001600160a01b036101009091048116600090815260066020526040808220549287168252902082905580821161065c576106546004548361064e919061081c565b82610724565b6007556106b5565b6005546001600160a01b0386811661010090920416146106b25760058054610100600160a81b0319166101006001600160a01b038816021790556004546106ae9083906106a9908461081c565b610724565b6007555b50805b600554600754604080516001600160a01b03808a16825260208201879052610100909404909316908301526060820183905260808201527ff152f4ff5e488c55370a2d53925a55055228ebd8ec95bd0251bbb299e48786b09060a00160405180910390a1506001949350505050565b60008183106107335781610735565b825b9392505050565b60006020828403121561074e57600080fd5b81356001600160a01b038116811461073557600080fd5b600060208083528351808285015260005b8181101561079257858101830151858201604001528201610776565b818111156107a4576000604083870101525b50601f01601f1916929092016040019392505050565b634e487b7160e01b600052601160045260246000fd5b6000828210156107e2576107e26107ba565b500390565b600181811c908216806107fb57607f821691505b6020821081141561058357634e487b7160e01b600052602260045260246000fd5b6000821982111561082f5761082f6107ba565b50019056fea2646970667358221220f8bfeffd632b71a008a5e71499bf157e34dfe9ee65743a12d2899d6990053a1164736f6c63430008090033a2646970667358221220103af13860be46297ee47933c8f686cd35d1b84abcea7b2e58ad37e43be4e91d64736f6c63430008090033",
  "immutableReferences": {},
  "source": "// SPDX-License-Identifier: MIT\r\npragma solidity >=0.4.21 <0.9.0;\r\n\r\nimport {Auction} from \"./Auction.sol\";\r\n\r\ncontract AuctionRepository {\r\n    Auction[] public auctions;\r\n\r\n    event AuctionCreated(address owner, uint256 numAuctions);\r\n\r\n    function createAuction(\r\n        uint256 _bidIncrement,\r\n        uint256 _startBlock,\r\n        uint256 _endBlock,\r\n        string memory _ipfsHash\r\n    ) public {\r\n        Auction newAuction = new Auction(\r\n            msg.sender,\r\n            _bidIncrement,\r\n            _startBlock,\r\n            _endBlock,\r\n            _ipfsHash\r\n        );\r\n        auctions.push(newAuction);\r\n\r\n        emit AuctionCreated(msg.sender, auctions.length);\r\n    }\r\n\r\n    function getAuctions() public view returns (Auction[] memory) {\r\n        return auctions;\r\n    }\r\n\r\n    function getOwner(uint _i) public view returns (address) {\r\n        return auctions[_i].owner();\r\n    }\r\n\r\n    function getStartBlock(uint _i) public view returns (uint256) {\r\n        return auctions[_i].startBlock();\r\n    }\r\n\r\n    function getEndBlock(uint _i) public view returns (uint256) {\r\n        return auctions[_i].endBlock();\r\n    }\r\n\r\n    function getIpfsHash(uint _i) public view returns (string memory) {\r\n        return auctions[_i].ipfsHash();\r\n    }\r\n\r\n    function getBidIncrement(uint _i) public view returns (uint256) {\r\n        return auctions[_i].bidIncrement();\r\n    }\r\n\r\n    function getCanceled(uint _i) public view returns (bool) {\r\n        return auctions[_i].canceled();\r\n    }\r\n\r\n    function getHighestBidder(uint _i) public view returns (address) {\r\n        return auctions[_i].highestBidder();\r\n    }\r\n\r\n    function getHighestBindingBid(uint _i) public view returns (uint256) {\r\n        return auctions[_i].highestBindingBid();\r\n    }\r\n\r\n    function placeBid(uint _i) public payable returns (bool) {\r\n        return auctions[_i].placeBid{value:msg.value}(msg.sender);\r\n    }\r\n\r\n    function withdraw(uint _i) public returns (bool) {\r\n        return auctions[_i].withdraw(msg.sender);\r\n    }\r\n\r\n    function cancelAuction(uint _i) public returns (bool) {\r\n        return auctions[_i].cancelAuction(msg.sender);\r\n    }\r\n}\r\n",
  "sourcePath": "E:\\ckb\\dapp\\eth-auction-dapp\\contracts\\AuctionRepository.sol",
  "compiler": {
    "name": "solc",
    "version": "0.8.9+commit.e5eed63a.Emscripten.clang"
  },
  "schemaVersion": "3.4.3",
  "updatedAt": "2021-10-07T13:53:00.590Z",
  "networkType": "ethereum",
  "devdoc": {
    "kind": "dev",
    "methods": {},
    "version": 1
  },
  "userdoc": {
    "kind": "user",
    "methods": {},
    "version": 1
  }
}