{
  "contractName": "Auction",
  "abi": [
    {
      "inputs": [
        {
          "internalType": "address",
          "name": "_owner",
          "type": "address"
        },
        {
          "internalType": "uint256",
          "name": "_bidIncrement",
          "type": "uint256"
        },
        {
          "internalType": "uint256",
          "name": "_startBlock",
          "type": "uint256"
        },
        {
          "internalType": "uint256",
          "name": "_endBlock",
          "type": "uint256"
        },
        {
          "internalType": "string",
          "name": "_ipfsHash",
          "type": "string"
        },
        {
          "internalType": "address",
          "name": "_deedRepositoryAddress",
          "type": "address"
        },
        {
          "internalType": "uint256",
          "name": "_deedId",
          "type": "uint256"
        }
      ],
      "stateMutability": "nonpayable",
      "type": "constructor"
    },
    {
      "anonymous": false,
      "inputs": [
        {
          "indexed": false,
          "internalType": "address",
          "name": "bidder",
          "type": "address"
        },
        {
          "indexed": false,
          "internalType": "uint256",
          "name": "bid",
          "type": "uint256"
        },
        {
          "indexed": false,
          "internalType": "address",
          "name": "highestBidder",
          "type": "address"
        },
        {
          "indexed": false,
          "internalType": "uint256",
          "name": "highestBid",
          "type": "uint256"
        },
        {
          "indexed": false,
          "internalType": "uint256",
          "name": "highestBindingBid",
          "type": "uint256"
        }
      ],
      "name": "LogBid",
      "type": "event"
    },
    {
      "anonymous": false,
      "inputs": [],
      "name": "LogCanceled",
      "type": "event"
    },
    {
      "anonymous": false,
      "inputs": [
        {
          "indexed": false,
          "internalType": "address",
          "name": "withdrawer",
          "type": "address"
        },
        {
          "indexed": false,
          "internalType": "address",
          "name": "withdrawalAccount",
          "type": "address"
        },
        {
          "indexed": false,
          "internalType": "uint256",
          "name": "amount",
          "type": "uint256"
        }
      ],
      "name": "LogWithdrawal",
      "type": "event"
    },
    {
      "inputs": [],
      "name": "bidIncrement",
      "outputs": [
        {
          "internalType": "uint256",
          "name": "",
          "type": "uint256"
        }
      ],
      "stateMutability": "view",
      "type": "function"
    },
    {
      "inputs": [],
      "name": "canceled",
      "outputs": [
        {
          "internalType": "bool",
          "name": "",
          "type": "bool"
        }
      ],
      "stateMutability": "view",
      "type": "function"
    },
    {
      "inputs": [],
      "name": "deedId",
      "outputs": [
        {
          "internalType": "uint256",
          "name": "",
          "type": "uint256"
        }
      ],
      "stateMutability": "view",
      "type": "function"
    },
    {
      "inputs": [],
      "name": "deedRepositoryAddress",
      "outputs": [
        {
          "internalType": "address",
          "name": "",
          "type": "address"
        }
      ],
      "stateMutability": "view",
      "type": "function"
    },
    {
      "inputs": [],
      "name": "endBlock",
      "outputs": [
        {
          "internalType": "uint256",
          "name": "",
          "type": "uint256"
        }
      ],
      "stateMutability": "view",
      "type": "function"
    },
    {
      "inputs": [
        {
          "internalType": "address",
          "name": "",
          "type": "address"
        }
      ],
      "name": "fundsByBidder",
      "outputs": [
        {
          "internalType": "uint256",
          "name": "",
          "type": "uint256"
        }
      ],
      "stateMutability": "view",
      "type": "function"
    },
    {
      "inputs": [],
      "name": "highestBidder",
      "outputs": [
        {
          "internalType": "address",
          "name": "",
          "type": "address"
        }
      ],
      "stateMutability": "view",
      "type": "function"
    },
    {
      "inputs": [],
      "name": "highestBindingBid",
      "outputs": [
        {
          "internalType": "uint256",
          "name": "",
          "type": "uint256"
        }
      ],
      "stateMutability": "view",
      "type": "function"
    },
    {
      "inputs": [],
      "name": "ipfsHash",
      "outputs": [
        {
          "internalType": "string",
          "name": "",
          "type": "string"
        }
      ],
      "stateMutability": "view",
      "type": "function"
    },
    {
      "inputs": [],
      "name": "owner",
      "outputs": [
        {
          "internalType": "address",
          "name": "",
          "type": "address"
        }
      ],
      "stateMutability": "view",
      "type": "function"
    },
    {
      "inputs": [],
      "name": "ownerHasWithdrawn",
      "outputs": [
        {
          "internalType": "bool",
          "name": "",
          "type": "bool"
        }
      ],
      "stateMutability": "view",
      "type": "function"
    },
    {
      "inputs": [],
      "name": "startBlock",
      "outputs": [
        {
          "internalType": "uint256",
          "name": "",
          "type": "uint256"
        }
      ],
      "stateMutability": "view",
      "type": "function"
    },
    {
      "inputs": [
        {
          "internalType": "address",
          "name": "_from",
          "type": "address"
        },
        {
          "internalType": "address",
          "name": "_to",
          "type": "address"
        },
        {
          "internalType": "address",
          "name": "_deedRepositoryAddress",
          "type": "address"
        },
        {
          "internalType": "uint256",
          "name": "_deedId",
          "type": "uint256"
        }
      ],
      "name": "approveAndTransfer",
      "outputs": [
        {
          "internalType": "bool",
          "name": "",
          "type": "bool"
        }
      ],
      "stateMutability": "nonpayable",
      "type": "function"
    },
    {
      "inputs": [
        {
          "internalType": "address",
          "name": "_origin",
          "type": "address"
        }
      ],
      "name": "placeBid",
      "outputs": [
        {
          "internalType": "bool",
          "name": "",
          "type": "bool"
        }
      ],
      "stateMutability": "payable",
      "type": "function"
    },
    {
      "inputs": [
        {
          "internalType": "address",
          "name": "_origin",
          "type": "address"
        },
        {
          "internalType": "address",
          "name": "_auctionRepo",
          "type": "address"
        }
      ],
      "name": "withdraw",
      "outputs": [
        {
          "internalType": "bool",
          "name": "",
          "type": "bool"
        }
      ],
      "stateMutability": "nonpayable",
      "type": "function"
    },
    {
      "inputs": [
        {
          "internalType": "address",
          "name": "_origin",
          "type": "address"
        },
        {
          "internalType": "address",
          "name": "_auctionRepo",
          "type": "address"
        }
      ],
      "name": "cancelAuction",
      "outputs": [
        {
          "internalType": "bool",
          "name": "",
          "type": "bool"
        }
      ],
      "stateMutability": "nonpayable",
      "type": "function"
    }
  ],
  "bytecode": "0x60806040523480156200001157600080fd5b5060405162000dbf38038062000dbf83398101604081905262000034916200019e565b8385106200004157600080fd5b6001600160a01b0387166200005557600080fd5b600080546001600160a01b0319166001600160a01b038916179055600486905560018590556002849055825162000094906003906020860190620000c5565b50600580546001600160a01b0319166001600160a01b03939093169290921790915560065550620003089350505050565b828054620000d390620002cb565b90600052602060002090601f016020900481019282620000f7576000855562000142565b82601f106200011257805160ff191683800117855562000142565b8280016001018555821562000142579182015b828111156200014257825182559160200191906001019062000125565b506200015092915062000154565b5090565b5b8082111562000150576000815560010162000155565b80516001600160a01b03811681146200018357600080fd5b919050565b634e487b7160e01b600052604160045260246000fd5b600080600080600080600060e0888a031215620001ba57600080fd5b620001c5886200016b565b60208981015160408b015160608c015160808d0151949b5091995097509550906001600160401b0380821115620001fb57600080fd5b818b0191508b601f8301126200021057600080fd5b81518181111562000225576200022562000188565b604051601f8201601f19908116603f0116810190838211818310171562000250576200025062000188565b816040528281528e868487010111156200026957600080fd5b600093505b828410156200028d57848401860151818501870152928501926200026e565b828411156200029f5760008684830101525b809850505050505050620002b660a089016200016b565b915060c0880151905092959891949750929550565b600181811c90821680620002e057607f821691505b602082108114156200030257634e487b7160e01b600052602260045260246000fd5b50919050565b610aa780620003186000396000f3fe6080604052600436106100f35760003560e01c806391f901571161008a578063ce10cf8011610059578063ce10cf8014610286578063e4940157146102b3578063f5b56c56146102c6578063f940e385146102dc57600080fd5b806391f90157146102095780639b92ed721461022e578063b3cc167a1461024e578063c623674f1461026457600080fd5b80633f9942ff116100c65780633f9942ff146101a357806348cd4cb1146101bd57806386a82c94146101d35780638da5cb5b146101e957600080fd5b8063083c6323146100f85780631bf822e514610121578063366c41eb1461014b5780633ab5241114610183575b600080fd5b34801561010457600080fd5b5061010e60025481565b6040519081526020015b60405180910390f35b34801561012d57600080fd5b50600a5461013b9060ff1681565b6040519015158152602001610118565b34801561015757600080fd5b5060055461016b906001600160a01b031681565b6040516001600160a01b039091168152602001610118565b34801561018f57600080fd5b5061013b61019e366004610909565b6102fc565b3480156101af57600080fd5b5060075461013b9060ff1681565b3480156101c957600080fd5b5061010e60015481565b3480156101df57600080fd5b5061010e60065481565b3480156101f557600080fd5b5060005461016b906001600160a01b031681565b34801561021557600080fd5b5060075461016b9061010090046001600160a01b031681565b34801561023a57600080fd5b5061013b61024936600461093c565b6103aa565b34801561025a57600080fd5b5061010e60045481565b34801561027057600080fd5b50610279610487565b6040516101189190610987565b34801561029257600080fd5b5061010e6102a13660046109dc565b60086020526000908152604090205481565b61013b6102c13660046109dc565b610515565b3480156102d257600080fd5b5061010e60095481565b3480156102e857600080fd5b5061013b6102f7366004610909565b6106b2565b6000805483906001600160a01b0380831691161461031957600080fd5b600254431061032757600080fd5b60075460ff161561033757600080fd5b60005460055460065461035a9286926001600160a01b03918216929116906103aa565b1561039e576007805460ff191660011790556040517f462b6ca7f632601af1295aeb320851f50e8e630a309173f23535845ea4bfb3b990600090a1600191506103a3565b600091505b5092915050565b60405163095ea7b360e01b81526001600160a01b03848116600483015260248201839052600091849182169063095ea7b390604401600060405180830381600087803b1580156103f957600080fd5b505af115801561040d573d6000803e3d6000fd5b50506040516323b872dd60e01b81526001600160a01b038981166004830152888116602483015260448201879052841692506323b872dd9150606401600060405180830381600087803b15801561046357600080fd5b505af1158015610477573d6000803e3d6000fd5b5060019998505050505050505050565b60038054610494906109f7565b80601f01602080910402602001604051908101604052809291908181526020018280546104c0906109f7565b801561050d5780601f106104e25761010080835404028352916020019161050d565b820191906000526020600020905b8154815290600101906020018083116104f057829003601f168201915b505050505081565b600060015443101561052657600080fd5b600254431061053457600080fd5b60075460ff161561054457600080fd5b60005482906001600160a01b038083169116141561056157600080fd5b6001600160a01b038316600090815260086020526040812054610585903490610a42565b9050600954811161059557600080fd5b6007546001600160a01b03610100909104811660009081526008602052604080822054928716825290208290558082116105e8576105e0600454836105da9190610a42565b826108d5565b600955610641565b6007546001600160a01b03868116610100909204161461063e5760078054610100600160a81b0319166101006001600160a01b0388160217905560045461063a9083906106359084610a42565b6108d5565b6009555b50805b600754600954604080516001600160a01b03808a16825260208201879052610100909404909316908301526060820183905260808201527ff152f4ff5e488c55370a2d53925a55055228ebd8ec95bd0251bbb299e48786b09060a00160405180910390a16001935050505b50919050565b6000600254431015806106c7575060075460ff165b6106d057600080fd5b600754600090819060ff16156107025750506001600160a01b038316600090815260086020526040902054839061080e565b6000546001600160a01b038681169116141561075c575050600754600954600a805460ff191660011790556005546006546001600160a01b03610100909404841693610756928792869291909116906103aa565b5061080e565b6007546001600160a01b038681166101009092041614156107f057600754600a546101009091046001600160a01b0316925060ff16156107bc575060075461010090046001600160a01b031660009081526008602052604090205461080e565b60095460075461010090046001600160a01b03166000908152600860205260409020546107e99190610a5a565b905061080e565b50506001600160a01b03831660009081526008602052604090205483905b6000811161081b57600080fd5b6001600160a01b03821660009081526008602052604081208054839290610843908490610a5a565b90915550506040516001600160a01b0386169082156108fc029083906000818181858888f1935050505015801561087e573d6000803e3d6000fd5b50604080516001600160a01b038088168252841660208201529081018290527f0ec497a8ae5b1ba29c60470ef651def995fac3deebbdcc56c47a4e5f51a4c2bd9060600160405180910390a1506001949350505050565b60008183106108e457816108e6565b825b9392505050565b80356001600160a01b038116811461090457600080fd5b919050565b6000806040838503121561091c57600080fd5b610925836108ed565b9150610933602084016108ed565b90509250929050565b6000806000806080858703121561095257600080fd5b61095b856108ed565b9350610969602086016108ed565b9250610977604086016108ed565b9396929550929360600135925050565b600060208083528351808285015260005b818110156109b457858101830151858201604001528201610998565b818111156109c6576000604083870101525b50601f01601f1916929092016040019392505050565b6000602082840312156109ee57600080fd5b6108e6826108ed565b600181811c90821680610a0b57607f821691505b602082108114156106ac57634e487b7160e01b600052602260045260246000fd5b634e487b7160e01b600052601160045260246000fd5b60008219821115610a5557610a55610a2c565b500190565b600082821015610a6c57610a6c610a2c565b50039056fea2646970667358221220362cfa0fc70f40d1c0c1aa98062c26e17bc11451e71fa4347612304606037ac164736f6c63430008090033",
  "immutableReferences": {},
  "source": "// SPDX-License-Identifier: MIT\r\npragma solidity >=0.4.21 <0.9.0;\r\n\r\nimport \"@openzeppelin/contracts/utils/math/Math.sol\";\r\nimport \"./DeedRepository.sol\";\r\n\r\ncontract Auction {\r\n    // using Math for uint256;\r\n\r\n    // static\r\n    address public owner;\r\n    uint256 public startBlock;\r\n    uint256 public endBlock;\r\n    string public ipfsHash;\r\n    uint256 public bidIncrement;\r\n    address public deedRepositoryAddress;\r\n    uint256 public deedId;\r\n\r\n    // state\r\n    bool public canceled;\r\n    address public highestBidder;\r\n    mapping(address => uint256) public fundsByBidder;\r\n    uint256 public highestBindingBid;\r\n    bool public ownerHasWithdrawn;\r\n\r\n    event LogBid(\r\n        address bidder,\r\n        uint256 bid,\r\n        address highestBidder,\r\n        uint256 highestBid,\r\n        uint256 highestBindingBid\r\n    );\r\n\r\n    event LogWithdrawal(\r\n        address withdrawer,\r\n        address withdrawalAccount,\r\n        uint256 amount\r\n    );\r\n\r\n    event LogCanceled();\r\n\r\n    constructor(\r\n        address _owner,\r\n        uint256 _bidIncrement,\r\n        uint256 _startBlock,\r\n        uint256 _endBlock,\r\n        string memory _ipfsHash,\r\n        address _deedRepositoryAddress,\r\n        uint256 _deedId\r\n    ) {\r\n        require(_startBlock < _endBlock);\r\n        // require(_startBlock >= block.number);\r\n        require(_owner != address(0));\r\n\r\n        owner = _owner;\r\n        bidIncrement = _bidIncrement;\r\n        startBlock = _startBlock;\r\n        endBlock = _endBlock;\r\n        ipfsHash = _ipfsHash;\r\n        deedRepositoryAddress = _deedRepositoryAddress;\r\n        deedId = _deedId;\r\n    }\r\n\r\n    function approveAndTransfer(address _from, address _to, address _deedRepositoryAddress, uint256 _deedId) public returns(bool) {\r\n        DeedRepository remoteContract = DeedRepository(_deedRepositoryAddress);\r\n        remoteContract.approve(_to, _deedId);\r\n        remoteContract.transferFrom(_from, _to, _deedId);\r\n        return true;\r\n    }\r\n\r\n    modifier onlyAfterStart() {\r\n        require(block.number >= startBlock);\r\n        _;\r\n    }\r\n\r\n    modifier onlyBeforeEnd() {\r\n        require(block.number < endBlock);\r\n        _;\r\n    }\r\n\r\n    modifier onlyNotCanceled() {\r\n        require(!canceled);\r\n        _;\r\n    }\r\n\r\n    modifier onlyNotOwner(address _origin) {\r\n        require(_origin != owner);\r\n        _;\r\n    }\r\n\r\n    function placeBid(address _origin)\r\n        payable\r\n        public\r\n        onlyAfterStart\r\n        onlyBeforeEnd\r\n        onlyNotCanceled\r\n        onlyNotOwner(_origin)\r\n        returns (bool)\r\n    {\r\n        uint newBid = fundsByBidder[_origin] + msg.value;\r\n        require(newBid > highestBindingBid);\r\n\r\n        uint highestBid = fundsByBidder[highestBidder];\r\n        fundsByBidder[_origin] = newBid;\r\n\r\n        if (newBid <= highestBid) {\r\n            highestBindingBid = Math.min(newBid + bidIncrement, highestBid);\r\n        } else {\r\n            if (_origin != highestBidder) {\r\n                highestBidder = _origin;\r\n                highestBindingBid = Math.min(newBid, highestBid + bidIncrement);\r\n            }\r\n            highestBid = newBid;\r\n        }\r\n\r\n        emit LogBid(_origin, newBid, highestBidder, highestBid, highestBindingBid);\r\n        return true;\r\n    }\r\n\r\n    function withdraw(address _origin, address _auctionRepo) public returns (bool) {\r\n        require(block.number >= endBlock || canceled);\r\n\r\n        address withdrawalAccount;\r\n        uint withdrawalAmount;\r\n\r\n        if (canceled) {\r\n            withdrawalAccount = _origin;\r\n            withdrawalAmount = fundsByBidder[withdrawalAccount];\r\n        } else {\r\n            if (_origin == owner) {\r\n                withdrawalAccount = highestBidder;\r\n                withdrawalAmount = highestBindingBid;\r\n                ownerHasWithdrawn = true;\r\n                approveAndTransfer(_auctionRepo, highestBidder, deedRepositoryAddress, deedId);\r\n            } else if (_origin == highestBidder) {\r\n                withdrawalAccount = highestBidder;\r\n                if (ownerHasWithdrawn) {\r\n                    withdrawalAmount = fundsByBidder[highestBidder];\r\n                } else {\r\n                    withdrawalAmount = fundsByBidder[highestBidder] - highestBindingBid;\r\n                }\r\n            } else {\r\n                withdrawalAccount = _origin;\r\n                withdrawalAmount = fundsByBidder[withdrawalAccount];\r\n            }\r\n        }\r\n\r\n        require(withdrawalAmount > 0);\r\n\r\n        fundsByBidder[withdrawalAccount] -= withdrawalAmount;\r\n        payable(_origin).transfer(withdrawalAmount);\r\n\r\n        emit LogWithdrawal(_origin, withdrawalAccount, withdrawalAmount);\r\n        return true;\r\n    }\r\n\r\n    modifier onlyOwner(address _origin) {\r\n        require(_origin == owner);\r\n        _;\r\n    }\r\n\r\n    function cancelAuction(address _origin, address _auctionRepo) public onlyOwner(_origin) onlyBeforeEnd onlyNotCanceled returns (bool) {\r\n        if(approveAndTransfer(_auctionRepo, owner, deedRepositoryAddress, deedId)){\r\n            canceled = true;\r\n            emit LogCanceled();\r\n            return true;\r\n        }\r\n        return false;\r\n    }\r\n}\r\n",
  "sourcePath": "E:\\ckb\\dapp\\eth-auction-dapp\\contracts\\Auction.sol",
  "compiler": {
    "name": "solc",
    "version": "0.8.9+commit.e5eed63a.Emscripten.clang"
  },
  "schemaVersion": "3.4.3",
  "updatedAt": "2021-10-11T03:00:35.319Z",
  "devdoc": {
    "kind": "dev",
    "methods": {},
    "version": 1
  },
  "userdoc": {
    "kind": "user",
    "methods": {},
    "version": 1
  }
}