{
  "contractName": "AuctionRepository",
  "abi": [
    {
      "anonymous": false,
      "inputs": [
        {
          "indexed": false,
          "internalType": "address",
          "name": "owner",
          "type": "address"
        },
        {
          "indexed": false,
          "internalType": "uint256",
          "name": "numAuctions",
          "type": "uint256"
        }
      ],
      "name": "AuctionCreated",
      "type": "event"
    },
    {
      "inputs": [
        {
          "internalType": "uint256",
          "name": "",
          "type": "uint256"
        }
      ],
      "name": "auctions",
      "outputs": [
        {
          "internalType": "contract Auction",
          "name": "",
          "type": "address"
        }
      ],
      "stateMutability": "view",
      "type": "function",
      "constant": true
    },
    {
      "inputs": [
        {
          "internalType": "uint256",
          "name": "_bidIncrement",
          "type": "uint256"
        },
        {
          "internalType": "uint256",
          "name": "_startBlock",
          "type": "uint256"
        },
        {
          "internalType": "uint256",
          "name": "_endBlock",
          "type": "uint256"
        },
        {
          "internalType": "string",
          "name": "_ipfsHash",
          "type": "string"
        },
        {
          "internalType": "address",
          "name": "_deedRepositoryAddress",
          "type": "address"
        },
        {
          "internalType": "uint256",
          "name": "_deedId",
          "type": "uint256"
        }
      ],
      "name": "createAuction",
      "outputs": [],
      "stateMutability": "nonpayable",
      "type": "function"
    },
    {
      "inputs": [],
      "name": "getAuctions",
      "outputs": [
        {
          "internalType": "contract Auction[]",
          "name": "",
          "type": "address[]"
        }
      ],
      "stateMutability": "view",
      "type": "function",
      "constant": true
    },
    {
      "inputs": [
        {
          "internalType": "uint256",
          "name": "_i",
          "type": "uint256"
        }
      ],
      "name": "getOwner",
      "outputs": [
        {
          "internalType": "address",
          "name": "",
          "type": "address"
        }
      ],
      "stateMutability": "view",
      "type": "function",
      "constant": true
    },
    {
      "inputs": [
        {
          "internalType": "uint256",
          "name": "_i",
          "type": "uint256"
        }
      ],
      "name": "getStartBlock",
      "outputs": [
        {
          "internalType": "uint256",
          "name": "",
          "type": "uint256"
        }
      ],
      "stateMutability": "view",
      "type": "function",
      "constant": true
    },
    {
      "inputs": [
        {
          "internalType": "uint256",
          "name": "_i",
          "type": "uint256"
        }
      ],
      "name": "getEndBlock",
      "outputs": [
        {
          "internalType": "uint256",
          "name": "",
          "type": "uint256"
        }
      ],
      "stateMutability": "view",
      "type": "function",
      "constant": true
    },
    {
      "inputs": [
        {
          "internalType": "uint256",
          "name": "_i",
          "type": "uint256"
        }
      ],
      "name": "getIpfsHash",
      "outputs": [
        {
          "internalType": "string",
          "name": "",
          "type": "string"
        }
      ],
      "stateMutability": "view",
      "type": "function",
      "constant": true
    },
    {
      "inputs": [
        {
          "internalType": "uint256",
          "name": "_i",
          "type": "uint256"
        }
      ],
      "name": "getBidIncrement",
      "outputs": [
        {
          "internalType": "uint256",
          "name": "",
          "type": "uint256"
        }
      ],
      "stateMutability": "view",
      "type": "function",
      "constant": true
    },
    {
      "inputs": [
        {
          "internalType": "uint256",
          "name": "_i",
          "type": "uint256"
        }
      ],
      "name": "getCanceled",
      "outputs": [
        {
          "internalType": "bool",
          "name": "",
          "type": "bool"
        }
      ],
      "stateMutability": "view",
      "type": "function",
      "constant": true
    },
    {
      "inputs": [
        {
          "internalType": "uint256",
          "name": "_i",
          "type": "uint256"
        }
      ],
      "name": "getHighestBidder",
      "outputs": [
        {
          "internalType": "address",
          "name": "",
          "type": "address"
        }
      ],
      "stateMutability": "view",
      "type": "function",
      "constant": true
    },
    {
      "inputs": [
        {
          "internalType": "uint256",
          "name": "_i",
          "type": "uint256"
        }
      ],
      "name": "getHighestBindingBid",
      "outputs": [
        {
          "internalType": "uint256",
          "name": "",
          "type": "uint256"
        }
      ],
      "stateMutability": "view",
      "type": "function",
      "constant": true
    },
    {
      "inputs": [
        {
          "internalType": "uint256",
          "name": "_i",
          "type": "uint256"
        }
      ],
      "name": "placeBid",
      "outputs": [
        {
          "internalType": "bool",
          "name": "",
          "type": "bool"
        }
      ],
      "stateMutability": "payable",
      "type": "function",
      "payable": true
    },
    {
      "inputs": [
        {
          "internalType": "uint256",
          "name": "_i",
          "type": "uint256"
        }
      ],
      "name": "withdraw",
      "outputs": [
        {
          "internalType": "bool",
          "name": "",
          "type": "bool"
        }
      ],
      "stateMutability": "nonpayable",
      "type": "function"
    },
    {
      "inputs": [
        {
          "internalType": "uint256",
          "name": "_i",
          "type": "uint256"
        }
      ],
      "name": "cancelAuction",
      "outputs": [
        {
          "internalType": "bool",
          "name": "",
          "type": "bool"
        }
      ],
      "stateMutability": "nonpayable",
      "type": "function"
    }
  ],
  "bytecode": "0x608060405234801561001057600080fd5b50611c44806100206000396000f3fe608060405260043610620000ef5760003560e01c8063aac684c81162000089578063c750cb791162000060578063c750cb791462000297578063d450fbc914620002bc578063d7c0691914620002f0578063f248b3d2146200031757600080fd5b8063aac684c81462000226578063c1a10419146200024d578063c41a360a146200027257600080fd5b806370d0503011620000ca57806370d0503014620001a05780638c8ab7ad14620001c557806396b5a75514620001ea5780639979ef45146200020f57600080fd5b806301b2320e14620000f45780632e1a7d4d146200012c578063571a26a01462000162575b600080fd5b3480156200010157600080fd5b50620001196200011336600462000aca565b6200033c565b6040519081526020015b60405180910390f35b3480156200013957600080fd5b50620001516200014b36600462000aca565b620003de565b604051901515815260200162000123565b3480156200016f57600080fd5b50620001876200018136600462000aca565b62000486565b6040516001600160a01b03909116815260200162000123565b348015620001ad57600080fd5b5062000151620001bf36600462000aca565b620004b1565b348015620001d257600080fd5b5062000119620001e436600462000aca565b62000527565b348015620001f757600080fd5b50620001516200020936600462000aca565b62000588565b620001516200022036600462000aca565b620005df565b3480156200023357600080fd5b506200024b6200024536600462000b84565b62000682565b005b3480156200025a57600080fd5b50620001196200026c36600462000aca565b620007fa565b3480156200027f57600080fd5b50620001876200029136600462000aca565b6200085b565b348015620002a457600080fd5b5062000187620002b636600462000aca565b620008f7565b348015620002c957600080fd5b50620002e1620002db36600462000aca565b62000958565b60405162000123919062000ca5565b348015620002fd57600080fd5b5062000308620009f7565b60405162000123919062000cc1565b3480156200032457600080fd5b50620001196200033636600462000aca565b62000a5b565b600080828154811062000353576200035362000d10565b60009182526020918290200154604080516348cd4cb160e01b815290516001600160a01b03909216926348cd4cb192600480840193829003018186803b1580156200039d57600080fd5b505afa158015620003b2573d6000803e3d6000fd5b505050506040513d601f19601f82011682018060405250810190620003d8919062000d26565b92915050565b6000808281548110620003f557620003f562000d10565b60009182526020909120015460405163f940e38560e01b81523360048201523060248201526001600160a01b039091169063f940e385906044015b602060405180830381600087803b1580156200044b57600080fd5b505af115801562000460573d6000803e3d6000fd5b505050506040513d601f19601f82011682018060405250810190620003d8919062000d40565b600081815481106200049757600080fd5b6000918252602090912001546001600160a01b0316905081565b6000808281548110620004c857620004c862000d10565b6000918252602091829020015460408051633f9942ff60e01b815290516001600160a01b0390921692633f9942ff92600480840193829003018186803b1580156200051257600080fd5b505afa15801562000460573d6000803e3d6000fd5b60008082815481106200053e576200053e62000d10565b600091825260209182902001546040805163083c632360e01b815290516001600160a01b039092169263083c632392600480840193829003018186803b1580156200039d57600080fd5b60008082815481106200059f576200059f62000d10565b600091825260209091200154604051633ab5241160e01b81523360048201523060248201526001600160a01b0390911690633ab524119060440162000430565b6000808281548110620005f657620005f662000d10565b60009182526020909120015460405163e494015760e01b81523360048201526001600160a01b039091169063e49401579034906024016020604051808303818588803b1580156200064657600080fd5b505af11580156200065b573d6000803e3d6000fd5b50505050506040513d601f19601f82011682018060405250810190620003d8919062000d40565b81816000826001600160a01b0316636352211e836040518263ffffffff1660e01b8152600401620006b591815260200190565b60206040518083038186803b158015620006ce57600080fd5b505afa158015620006e3573d6000803e3d6000fd5b505050506040513d601f19601f8201168201806040525081019062000709919062000d64565b90506001600160a01b03811630146200072157600080fd5b6000338a8a8a8a8a8a604051620007389062000abc565b6200074a979695949392919062000d84565b604051809103906000f08015801562000767573d6000803e3d6000fd5b50600080546001810182558180527f290decd9548b62a8d60345a988386fc84ba6bc95484008f6362f93160ef3e5630180546001600160a01b0319166001600160a01b038416179055546040805133815260208101929092529192507f3249a06bd478adf780bb7930214ad005e9cfa517d63221c0b77f27199d1a58b3910160405180910390a150505050505050505050565b600080828154811062000811576200081162000d10565b6000918252602091829020015460408051637adab62b60e11b815290516001600160a01b039092169263f5b56c5692600480840193829003018186803b1580156200039d57600080fd5b600080828154811062000872576200087262000d10565b6000918252602091829020015460408051638da5cb5b60e01b815290516001600160a01b0390921692638da5cb5b92600480840193829003018186803b158015620008bc57600080fd5b505afa158015620008d1573d6000803e3d6000fd5b505050506040513d601f19601f82011682018060405250810190620003d8919062000d64565b60008082815481106200090e576200090e62000d10565b60009182526020918290200154604080516391f9015760e01b815290516001600160a01b03909216926391f9015792600480840193829003018186803b158015620008bc57600080fd5b60606000828154811062000970576200097062000d10565b60009182526020822001546040805163c623674f60e01b815290516001600160a01b039092169263c623674f92600480840193829003018186803b158015620009b857600080fd5b505afa158015620009cd573d6000803e3d6000fd5b505050506040513d6000823e601f3d908101601f19168201604052620003d8919081019062000dcf565b6060600080548060200260200160405190810160405280929190818152602001828054801562000a5157602002820191906000526020600020905b81546001600160a01b0316815260019091019060200180831162000a32575b5050505050905090565b600080828154811062000a725762000a7262000d10565b60009182526020918290200154604080516359e60b3d60e11b815290516001600160a01b039092169263b3cc167a92600480840193829003018186803b1580156200039d57600080fd5b610dbf8062000e5083390190565b60006020828403121562000add57600080fd5b5035919050565b634e487b7160e01b600052604160045260246000fd5b604051601f8201601f1916810167ffffffffffffffff8111828210171562000b265762000b2662000ae4565b604052919050565b600067ffffffffffffffff82111562000b4b5762000b4b62000ae4565b50601f01601f191660200190565b6001600160a01b038116811462000b6f57600080fd5b50565b803562000b7f8162000b59565b919050565b60008060008060008060c0878903121562000b9e57600080fd5b863595506020870135945060408701359350606087013567ffffffffffffffff81111562000bcb57600080fd5b8701601f8101891362000bdd57600080fd5b803562000bf462000bee8262000b2e565b62000afa565b8181528a602083850101111562000c0a57600080fd5b8160208401602083013760006020838301015280955050505062000c316080880162000b72565b915060a087013590509295509295509295565b60005b8381101562000c6157818101518382015260200162000c47565b8381111562000c71576000848401525b50505050565b6000815180845262000c9181602086016020860162000c44565b601f01601f19169290920160200192915050565b60208152600062000cba602083018462000c77565b9392505050565b6020808252825182820181905260009190848201906040850190845b8181101562000d045783516001600160a01b03168352928401929184019160010162000cdd565b50909695505050505050565b634e487b7160e01b600052603260045260246000fd5b60006020828403121562000d3957600080fd5b5051919050565b60006020828403121562000d5357600080fd5b8151801515811462000cba57600080fd5b60006020828403121562000d7757600080fd5b815162000cba8162000b59565b600060018060a01b03808a16835288602084015287604084015286606084015260e0608084015262000dba60e084018762000c77565b941660a08301525060c0015295945050505050565b60006020828403121562000de257600080fd5b815167ffffffffffffffff81111562000dfa57600080fd5b8201601f8101841362000e0c57600080fd5b805162000e1d62000bee8262000b2e565b81815285602083850101111562000e3357600080fd5b62000e4682602083016020860162000c44565b9594505050505056fe60806040523480156200001157600080fd5b5060405162000dbf38038062000dbf83398101604081905262000034916200019e565b8385106200004157600080fd5b6001600160a01b0387166200005557600080fd5b600080546001600160a01b0319166001600160a01b038916179055600486905560018590556002849055825162000094906003906020860190620000c5565b50600580546001600160a01b0319166001600160a01b03939093169290921790915560065550620003089350505050565b828054620000d390620002cb565b90600052602060002090601f016020900481019282620000f7576000855562000142565b82601f106200011257805160ff191683800117855562000142565b8280016001018555821562000142579182015b828111156200014257825182559160200191906001019062000125565b506200015092915062000154565b5090565b5b8082111562000150576000815560010162000155565b80516001600160a01b03811681146200018357600080fd5b919050565b634e487b7160e01b600052604160045260246000fd5b600080600080600080600060e0888a031215620001ba57600080fd5b620001c5886200016b565b60208981015160408b015160608c015160808d0151949b5091995097509550906001600160401b0380821115620001fb57600080fd5b818b0191508b601f8301126200021057600080fd5b81518181111562000225576200022562000188565b604051601f8201601f19908116603f0116810190838211818310171562000250576200025062000188565b816040528281528e868487010111156200026957600080fd5b600093505b828410156200028d57848401860151818501870152928501926200026e565b828411156200029f5760008684830101525b809850505050505050620002b660a089016200016b565b915060c0880151905092959891949750929550565b600181811c90821680620002e057607f821691505b602082108114156200030257634e487b7160e01b600052602260045260246000fd5b50919050565b610aa780620003186000396000f3fe6080604052600436106100f35760003560e01c806391f901571161008a578063ce10cf8011610059578063ce10cf8014610286578063e4940157146102b3578063f5b56c56146102c6578063f940e385146102dc57600080fd5b806391f90157146102095780639b92ed721461022e578063b3cc167a1461024e578063c623674f1461026457600080fd5b80633f9942ff116100c65780633f9942ff146101a357806348cd4cb1146101bd57806386a82c94146101d35780638da5cb5b146101e957600080fd5b8063083c6323146100f85780631bf822e514610121578063366c41eb1461014b5780633ab5241114610183575b600080fd5b34801561010457600080fd5b5061010e60025481565b6040519081526020015b60405180910390f35b34801561012d57600080fd5b50600a5461013b9060ff1681565b6040519015158152602001610118565b34801561015757600080fd5b5060055461016b906001600160a01b031681565b6040516001600160a01b039091168152602001610118565b34801561018f57600080fd5b5061013b61019e366004610909565b6102fc565b3480156101af57600080fd5b5060075461013b9060ff1681565b3480156101c957600080fd5b5061010e60015481565b3480156101df57600080fd5b5061010e60065481565b3480156101f557600080fd5b5060005461016b906001600160a01b031681565b34801561021557600080fd5b5060075461016b9061010090046001600160a01b031681565b34801561023a57600080fd5b5061013b61024936600461093c565b6103aa565b34801561025a57600080fd5b5061010e60045481565b34801561027057600080fd5b50610279610487565b6040516101189190610987565b34801561029257600080fd5b5061010e6102a13660046109dc565b60086020526000908152604090205481565b61013b6102c13660046109dc565b610515565b3480156102d257600080fd5b5061010e60095481565b3480156102e857600080fd5b5061013b6102f7366004610909565b6106b2565b6000805483906001600160a01b0380831691161461031957600080fd5b600254431061032757600080fd5b60075460ff161561033757600080fd5b60005460055460065461035a9286926001600160a01b03918216929116906103aa565b1561039e576007805460ff191660011790556040517f462b6ca7f632601af1295aeb320851f50e8e630a309173f23535845ea4bfb3b990600090a1600191506103a3565b600091505b5092915050565b60405163095ea7b360e01b81526001600160a01b03848116600483015260248201839052600091849182169063095ea7b390604401600060405180830381600087803b1580156103f957600080fd5b505af115801561040d573d6000803e3d6000fd5b50506040516323b872dd60e01b81526001600160a01b038981166004830152888116602483015260448201879052841692506323b872dd9150606401600060405180830381600087803b15801561046357600080fd5b505af1158015610477573d6000803e3d6000fd5b5060019998505050505050505050565b60038054610494906109f7565b80601f01602080910402602001604051908101604052809291908181526020018280546104c0906109f7565b801561050d5780601f106104e25761010080835404028352916020019161050d565b820191906000526020600020905b8154815290600101906020018083116104f057829003601f168201915b505050505081565b600060015443101561052657600080fd5b600254431061053457600080fd5b60075460ff161561054457600080fd5b60005482906001600160a01b038083169116141561056157600080fd5b6001600160a01b038316600090815260086020526040812054610585903490610a42565b9050600954811161059557600080fd5b6007546001600160a01b03610100909104811660009081526008602052604080822054928716825290208290558082116105e8576105e0600454836105da9190610a42565b826108d5565b600955610641565b6007546001600160a01b03868116610100909204161461063e5760078054610100600160a81b0319166101006001600160a01b0388160217905560045461063a9083906106359084610a42565b6108d5565b6009555b50805b600754600954604080516001600160a01b03808a16825260208201879052610100909404909316908301526060820183905260808201527ff152f4ff5e488c55370a2d53925a55055228ebd8ec95bd0251bbb299e48786b09060a00160405180910390a16001935050505b50919050565b6000600254431015806106c7575060075460ff165b6106d057600080fd5b600754600090819060ff16156107025750506001600160a01b038316600090815260086020526040902054839061080e565b6000546001600160a01b038681169116141561075c575050600754600954600a805460ff191660011790556005546006546001600160a01b03610100909404841693610756928792869291909116906103aa565b5061080e565b6007546001600160a01b038681166101009092041614156107f057600754600a546101009091046001600160a01b0316925060ff16156107bc575060075461010090046001600160a01b031660009081526008602052604090205461080e565b60095460075461010090046001600160a01b03166000908152600860205260409020546107e99190610a5a565b905061080e565b50506001600160a01b03831660009081526008602052604090205483905b6000811161081b57600080fd5b6001600160a01b03821660009081526008602052604081208054839290610843908490610a5a565b90915550506040516001600160a01b0386169082156108fc029083906000818181858888f1935050505015801561087e573d6000803e3d6000fd5b50604080516001600160a01b038088168252841660208201529081018290527f0ec497a8ae5b1ba29c60470ef651def995fac3deebbdcc56c47a4e5f51a4c2bd9060600160405180910390a1506001949350505050565b60008183106108e457816108e6565b825b9392505050565b80356001600160a01b038116811461090457600080fd5b919050565b6000806040838503121561091c57600080fd5b610925836108ed565b9150610933602084016108ed565b90509250929050565b6000806000806080858703121561095257600080fd5b61095b856108ed565b9350610969602086016108ed565b9250610977604086016108ed565b9396929550929360600135925050565b600060208083528351808285015260005b818110156109b457858101830151858201604001528201610998565b818111156109c6576000604083870101525b50601f01601f1916929092016040019392505050565b6000602082840312156109ee57600080fd5b6108e6826108ed565b600181811c90821680610a0b57607f821691505b602082108114156106ac57634e487b7160e01b600052602260045260246000fd5b634e487b7160e01b600052601160045260246000fd5b60008219821115610a5557610a55610a2c565b500190565b600082821015610a6c57610a6c610a2c565b50039056fea2646970667358221220362cfa0fc70f40d1c0c1aa98062c26e17bc11451e71fa4347612304606037ac164736f6c63430008090033a26469706673582212209a1da534c6d588cd465bd714d0b19c95411642ab7ee917611f33870cef1f853364736f6c63430008090033",
  "immutableReferences": {},
  "source": "// SPDX-License-Identifier: MIT\r\npragma solidity >=0.4.21 <0.9.0;\r\n\r\nimport \"./Auction.sol\";\r\nimport \"./DeedRepository.sol\";\r\n\r\ncontract AuctionRepository {\r\n    Auction[] public auctions;\r\n\r\n    event AuctionCreated(address owner, uint256 numAuctions);\r\n\r\n    modifier contractIsDeedOwner(address _deedRepositoryAddress, uint256 _deedId) {\r\n        address deedOwner = DeedRepository(_deedRepositoryAddress).ownerOf(_deedId);\r\n        require(deedOwner == address(this));\r\n        _;\r\n    }\r\n\r\n    function createAuction(\r\n        uint256 _bidIncrement,\r\n        uint256 _startBlock,\r\n        uint256 _endBlock,\r\n        string memory _ipfsHash,\r\n        address _deedRepositoryAddress,\r\n        uint256 _deedId\r\n    ) public contractIsDeedOwner(_deedRepositoryAddress, _deedId) {\r\n        Auction newAuction = new Auction(\r\n            msg.sender,\r\n            _bidIncrement,\r\n            _startBlock,\r\n            _endBlock,\r\n            _ipfsHash,\r\n            _deedRepositoryAddress,\r\n            _deedId\r\n        );\r\n        auctions.push(newAuction);\r\n\r\n        emit AuctionCreated(msg.sender, auctions.length);\r\n    }\r\n\r\n    function getAuctions() public view returns (Auction[] memory) {\r\n        return auctions;\r\n    }\r\n\r\n    function getOwner(uint _i) public view returns (address) {\r\n        return auctions[_i].owner();\r\n    }\r\n\r\n    function getStartBlock(uint _i) public view returns (uint256) {\r\n        return auctions[_i].startBlock();\r\n    }\r\n\r\n    function getEndBlock(uint _i) public view returns (uint256) {\r\n        return auctions[_i].endBlock();\r\n    }\r\n\r\n    function getIpfsHash(uint _i) public view returns (string memory) {\r\n        return auctions[_i].ipfsHash();\r\n    }\r\n\r\n    function getBidIncrement(uint _i) public view returns (uint256) {\r\n        return auctions[_i].bidIncrement();\r\n    }\r\n\r\n    function getCanceled(uint _i) public view returns (bool) {\r\n        return auctions[_i].canceled();\r\n    }\r\n\r\n    function getHighestBidder(uint _i) public view returns (address) {\r\n        return auctions[_i].highestBidder();\r\n    }\r\n\r\n    function getHighestBindingBid(uint _i) public view returns (uint256) {\r\n        return auctions[_i].highestBindingBid();\r\n    }\r\n\r\n    function placeBid(uint _i) public payable returns (bool) {\r\n        return auctions[_i].placeBid{value:msg.value}(msg.sender);\r\n    }\r\n\r\n    function withdraw(uint _i) public returns (bool) {\r\n        return auctions[_i].withdraw(msg.sender, address(this));\r\n    }\r\n\r\n    function cancelAuction(uint _i) public returns (bool) {\r\n        return auctions[_i].cancelAuction(msg.sender, address(this));\r\n    }\r\n}\r\n",
  "sourcePath": "E:\\ckb\\dapp\\eth-auction-dapp\\contracts\\AuctionRepository.sol",
  "compiler": {
    "name": "solc",
    "version": "0.8.9+commit.e5eed63a.Emscripten.clang"
  },
  "schemaVersion": "3.4.3",
  "updatedAt": "2021-10-11T03:00:43.692Z",
  "networkType": "ethereum",
  "devdoc": {
    "kind": "dev",
    "methods": {},
    "version": 1
  },
  "userdoc": {
    "kind": "user",
    "methods": {},
    "version": 1
  }
}