{
  "contractName": "AuctionRepository",
  "abi": [
    {
      "anonymous": false,
      "inputs": [
        {
          "indexed": false,
          "internalType": "address",
          "name": "owner",
          "type": "address"
        },
        {
          "indexed": false,
          "internalType": "uint256",
          "name": "numAuctions",
          "type": "uint256"
        }
      ],
      "name": "AuctionCreated",
      "type": "event"
    },
    {
      "inputs": [
        {
          "internalType": "uint256",
          "name": "",
          "type": "uint256"
        }
      ],
      "name": "auctions",
      "outputs": [
        {
          "internalType": "contract Auction",
          "name": "",
          "type": "address"
        }
      ],
      "stateMutability": "view",
      "type": "function",
      "constant": true
    },
    {
      "inputs": [
        {
          "internalType": "uint256",
          "name": "_bidIncrement",
          "type": "uint256"
        },
        {
          "internalType": "uint256",
          "name": "_startBlock",
          "type": "uint256"
        },
        {
          "internalType": "uint256",
          "name": "_endBlock",
          "type": "uint256"
        },
        {
          "internalType": "string",
          "name": "_ipfsHash",
          "type": "string"
        },
        {
          "internalType": "address",
          "name": "_deedRepositoryAddress",
          "type": "address"
        },
        {
          "internalType": "uint256",
          "name": "_deedId",
          "type": "uint256"
        }
      ],
      "name": "createAuction",
      "outputs": [],
      "stateMutability": "nonpayable",
      "type": "function"
    },
    {
      "inputs": [],
      "name": "getAuctions",
      "outputs": [
        {
          "internalType": "contract Auction[]",
          "name": "",
          "type": "address[]"
        }
      ],
      "stateMutability": "view",
      "type": "function",
      "constant": true
    },
    {
      "inputs": [
        {
          "internalType": "uint256",
          "name": "_i",
          "type": "uint256"
        }
      ],
      "name": "getOwner",
      "outputs": [
        {
          "internalType": "address",
          "name": "",
          "type": "address"
        }
      ],
      "stateMutability": "view",
      "type": "function",
      "constant": true
    },
    {
      "inputs": [
        {
          "internalType": "uint256",
          "name": "_i",
          "type": "uint256"
        }
      ],
      "name": "getStartBlock",
      "outputs": [
        {
          "internalType": "uint256",
          "name": "",
          "type": "uint256"
        }
      ],
      "stateMutability": "view",
      "type": "function",
      "constant": true
    },
    {
      "inputs": [
        {
          "internalType": "uint256",
          "name": "_i",
          "type": "uint256"
        }
      ],
      "name": "getEndBlock",
      "outputs": [
        {
          "internalType": "uint256",
          "name": "",
          "type": "uint256"
        }
      ],
      "stateMutability": "view",
      "type": "function",
      "constant": true
    },
    {
      "inputs": [
        {
          "internalType": "uint256",
          "name": "_i",
          "type": "uint256"
        }
      ],
      "name": "getIpfsHash",
      "outputs": [
        {
          "internalType": "string",
          "name": "",
          "type": "string"
        }
      ],
      "stateMutability": "view",
      "type": "function",
      "constant": true
    },
    {
      "inputs": [
        {
          "internalType": "uint256",
          "name": "_i",
          "type": "uint256"
        }
      ],
      "name": "getBidIncrement",
      "outputs": [
        {
          "internalType": "uint256",
          "name": "",
          "type": "uint256"
        }
      ],
      "stateMutability": "view",
      "type": "function",
      "constant": true
    },
    {
      "inputs": [
        {
          "internalType": "uint256",
          "name": "_i",
          "type": "uint256"
        }
      ],
      "name": "getCanceled",
      "outputs": [
        {
          "internalType": "bool",
          "name": "",
          "type": "bool"
        }
      ],
      "stateMutability": "view",
      "type": "function",
      "constant": true
    },
    {
      "inputs": [
        {
          "internalType": "uint256",
          "name": "_i",
          "type": "uint256"
        }
      ],
      "name": "getHighestBidder",
      "outputs": [
        {
          "internalType": "address",
          "name": "",
          "type": "address"
        }
      ],
      "stateMutability": "view",
      "type": "function",
      "constant": true
    },
    {
      "inputs": [
        {
          "internalType": "uint256",
          "name": "_i",
          "type": "uint256"
        }
      ],
      "name": "getHighestBindingBid",
      "outputs": [
        {
          "internalType": "uint256",
          "name": "",
          "type": "uint256"
        }
      ],
      "stateMutability": "view",
      "type": "function",
      "constant": true
    },
    {
      "inputs": [
        {
          "internalType": "uint256",
          "name": "_i",
          "type": "uint256"
        }
      ],
      "name": "placeBid",
      "outputs": [
        {
          "internalType": "bool",
          "name": "",
          "type": "bool"
        }
      ],
      "stateMutability": "payable",
      "type": "function",
      "payable": true
    },
    {
      "inputs": [
        {
          "internalType": "uint256",
          "name": "_i",
          "type": "uint256"
        }
      ],
      "name": "withdraw",
      "outputs": [
        {
          "internalType": "bool",
          "name": "",
          "type": "bool"
        }
      ],
      "stateMutability": "nonpayable",
      "type": "function"
    },
    {
      "inputs": [
        {
          "internalType": "uint256",
          "name": "_i",
          "type": "uint256"
        }
      ],
      "name": "cancelAuction",
      "outputs": [
        {
          "internalType": "bool",
          "name": "",
          "type": "bool"
        }
      ],
      "stateMutability": "nonpayable",
      "type": "function"
    }
  ],
  "bytecode": "0x608060405234801561001057600080fd5b50611e8e806100206000396000f3fe608060405260043610620000ef5760003560e01c8063aac684c81162000089578063c750cb791162000060578063c750cb791462000297578063d450fbc914620002bc578063d7c0691914620002f0578063f248b3d2146200031757600080fd5b8063aac684c81462000226578063c1a10419146200024d578063c41a360a146200027257600080fd5b806370d0503011620000ca57806370d0503014620001a05780638c8ab7ad14620001c557806396b5a75514620001ea5780639979ef45146200020f57600080fd5b806301b2320e14620000f45780632e1a7d4d146200012c578063571a26a01462000162575b600080fd5b3480156200010157600080fd5b50620001196200011336600462000ee7565b6200033c565b6040519081526020015b60405180910390f35b3480156200013957600080fd5b50620001516200014b36600462000ee7565b620003de565b604051901515815260200162000123565b3480156200016f57600080fd5b50620001876200018136600462000ee7565b620007b8565b6040516001600160a01b03909116815260200162000123565b348015620001ad57600080fd5b5062000151620001bf36600462000ee7565b620007e3565b348015620001d257600080fd5b5062000119620001e436600462000ee7565b62000859565b348015620001f757600080fd5b50620001516200020936600462000ee7565b620008ba565b620001516200022036600462000ee7565b6200097f565b3480156200023357600080fd5b506200024b6200024536600462000fa1565b62000a22565b005b3480156200025a57600080fd5b50620001196200026c36600462000ee7565b62000b9a565b3480156200027f57600080fd5b50620001876200029136600462000ee7565b62000bfb565b348015620002a457600080fd5b5062000187620002b636600462000ee7565b62000c97565b348015620002c957600080fd5b50620002e1620002db36600462000ee7565b62000cf8565b604051620001239190620010c2565b348015620002fd57600080fd5b506200030862000d97565b604051620001239190620010de565b3480156200032457600080fd5b50620001196200033636600462000ee7565b62000dfb565b60008082815481106200035357620003536200112d565b60009182526020918290200154604080516348cd4cb160e01b815290516001600160a01b03909216926348cd4cb192600480840193829003018186803b1580156200039d57600080fd5b505afa158015620003b2573d6000803e3d6000fd5b505050506040513d601f19601f82011682018060405250810190620003d8919062001143565b92915050565b6000808281548110620003f557620003f56200112d565b6000918252602091829020015460408051638da5cb5b60e01b815290516001600160a01b0390921692638da5cb5b92600480840193829003018186803b1580156200043f57600080fd5b505afa15801562000454573d6000803e3d6000fd5b505050506040513d601f19601f820116820180604052508101906200047a91906200115d565b6001600160a01b0316336001600160a01b031614801562000533575060008281548110620004ac57620004ac6200112d565b6000918252602091829020015460408051633f9942ff60e01b815290516001600160a01b0390921692633f9942ff92600480840193829003018186803b158015620004f657600080fd5b505afa1580156200050b573d6000803e3d6000fd5b505050506040513d601f19601f820116820180604052508101906200053191906200117d565b155b1562000717576200071530600084815481106200055457620005546200112d565b60009182526020918290200154604080516391f9015760e01b815290516001600160a01b03909216926391f9015792600480840193829003018186803b1580156200059e57600080fd5b505afa158015620005b3573d6000803e3d6000fd5b505050506040513d601f19601f82011682018060405250810190620005d991906200115d565b60008581548110620005ef57620005ef6200112d565b600091825260209182902001546040805163366c41eb60e01b815290516001600160a01b039092169263366c41eb92600480840193829003018186803b1580156200063957600080fd5b505afa1580156200064e573d6000803e3d6000fd5b505050506040513d601f19601f820116820180604052508101906200067491906200115d565b600086815481106200068a576200068a6200112d565b60009182526020918290200154604080516321aa0b2560e21b815290516001600160a01b03909216926386a82c9492600480840193829003018186803b158015620006d457600080fd5b505afa158015620006e9573d6000803e3d6000fd5b505050506040513d601f19601f820116820180604052508101906200070f919062001143565b62000e5c565b505b600082815481106200072d576200072d6200112d565b6000918252602090912001546040516351cff8d960e01b81523360048201526001600160a01b03909116906351cff8d9906024015b602060405180830381600087803b1580156200077d57600080fd5b505af115801562000792573d6000803e3d6000fd5b505050506040513d601f19601f82011682018060405250810190620003d891906200117d565b60008181548110620007c957600080fd5b6000918252602090912001546001600160a01b0316905081565b6000808281548110620007fa57620007fa6200112d565b6000918252602091829020015460408051633f9942ff60e01b815290516001600160a01b0390921692633f9942ff92600480840193829003018186803b1580156200084457600080fd5b505afa15801562000792573d6000803e3d6000fd5b60008082815481106200087057620008706200112d565b600091825260209182902001546040805163083c632360e01b815290516001600160a01b039092169263083c632392600480840193829003018186803b1580156200039d57600080fd5b6000620009213060008481548110620008d757620008d76200112d565b6000918252602091829020015460408051638da5cb5b60e01b815290516001600160a01b0390921692638da5cb5b92600480840193829003018186803b1580156200059e57600080fd5b156200097757600082815481106200093d576200093d6200112d565b60009182526020909120015460405163348b3ce960e21b81523360048201526001600160a01b039091169063d22cf3a49060240162000762565b506000919050565b60008082815481106200099657620009966200112d565b60009182526020909120015460405163e494015760e01b81523360048201526001600160a01b039091169063e49401579034906024016020604051808303818588803b158015620009e657600080fd5b505af1158015620009fb573d6000803e3d6000fd5b50505050506040513d601f19601f82011682018060405250810190620003d891906200117d565b81816000826001600160a01b0316636352211e836040518263ffffffff1660e01b815260040162000a5591815260200190565b60206040518083038186803b15801562000a6e57600080fd5b505afa15801562000a83573d6000803e3d6000fd5b505050506040513d601f19601f8201168201806040525081019062000aa991906200115d565b90506001600160a01b038116301462000ac157600080fd5b6000338a8a8a8a8a8a60405162000ad89062000ed9565b62000aea9796959493929190620011a1565b604051809103906000f08015801562000b07573d6000803e3d6000fd5b50600080546001810182558180527f290decd9548b62a8d60345a988386fc84ba6bc95484008f6362f93160ef3e5630180546001600160a01b0319166001600160a01b038416179055546040805133815260208101929092529192507f3249a06bd478adf780bb7930214ad005e9cfa517d63221c0b77f27199d1a58b3910160405180910390a150505050505050505050565b600080828154811062000bb15762000bb16200112d565b6000918252602091829020015460408051637adab62b60e11b815290516001600160a01b039092169263f5b56c5692600480840193829003018186803b1580156200039d57600080fd5b600080828154811062000c125762000c126200112d565b6000918252602091829020015460408051638da5cb5b60e01b815290516001600160a01b0390921692638da5cb5b92600480840193829003018186803b15801562000c5c57600080fd5b505afa15801562000c71573d6000803e3d6000fd5b505050506040513d601f19601f82011682018060405250810190620003d891906200115d565b600080828154811062000cae5762000cae6200112d565b60009182526020918290200154604080516391f9015760e01b815290516001600160a01b03909216926391f9015792600480840193829003018186803b15801562000c5c57600080fd5b60606000828154811062000d105762000d106200112d565b60009182526020822001546040805163c623674f60e01b815290516001600160a01b039092169263c623674f92600480840193829003018186803b15801562000d5857600080fd5b505afa15801562000d6d573d6000803e3d6000fd5b505050506040513d6000823e601f3d908101601f19168201604052620003d89190810190620011ec565b6060600080548060200260200160405190810160405280929190818152602001828054801562000df157602002820191906000526020600020905b81546001600160a01b0316815260019091019060200180831162000dd2575b5050505050905090565b600080828154811062000e125762000e126200112d565b60009182526020918290200154604080516359e60b3d60e11b815290516001600160a01b039092169263b3cc167a92600480840193829003018186803b1580156200039d57600080fd5b6040516323b872dd60e01b81526001600160a01b03858116600483015284811660248301526044820183905260009184918216906323b872dd90606401600060405180830381600087803b15801562000eb457600080fd5b505af115801562000ec9573d6000803e3d6000fd5b5060019998505050505050505050565b610bec806200126d83390190565b60006020828403121562000efa57600080fd5b5035919050565b634e487b7160e01b600052604160045260246000fd5b604051601f8201601f1916810167ffffffffffffffff8111828210171562000f435762000f4362000f01565b604052919050565b600067ffffffffffffffff82111562000f685762000f6862000f01565b50601f01601f191660200190565b6001600160a01b038116811462000f8c57600080fd5b50565b803562000f9c8162000f76565b919050565b60008060008060008060c0878903121562000fbb57600080fd5b863595506020870135945060408701359350606087013567ffffffffffffffff81111562000fe857600080fd5b8701601f8101891362000ffa57600080fd5b8035620010116200100b8262000f4b565b62000f17565b8181528a60208385010111156200102757600080fd5b816020840160208301376000602083830101528095505050506200104e6080880162000f8f565b915060a087013590509295509295509295565b60005b838110156200107e57818101518382015260200162001064565b838111156200108e576000848401525b50505050565b60008151808452620010ae81602086016020860162001061565b601f01601f19169290920160200192915050565b602081526000620010d7602083018462001094565b9392505050565b6020808252825182820181905260009190848201906040850190845b81811015620011215783516001600160a01b031683529284019291840191600101620010fa565b50909695505050505050565b634e487b7160e01b600052603260045260246000fd5b6000602082840312156200115657600080fd5b5051919050565b6000602082840312156200117057600080fd5b8151620010d78162000f76565b6000602082840312156200119057600080fd5b81518015158114620010d757600080fd5b600060018060a01b03808a16835288602084015287604084015286606084015260e06080840152620011d760e084018762001094565b941660a08301525060c0015295945050505050565b600060208284031215620011ff57600080fd5b815167ffffffffffffffff8111156200121757600080fd5b8201601f810184136200122957600080fd5b80516200123a6200100b8262000f4b565b8181528560208385010111156200125057600080fd5b6200126382602083016020860162001061565b9594505050505056fe60806040523480156200001157600080fd5b5060405162000bec38038062000bec8339810160408190526200003491620001ac565b8385106200004157600080fd5b438510156200004f57600080fd5b6001600160a01b0387166200006357600080fd5b600080546001600160a01b0319166001600160a01b0389161790556004869055600185905560028490558251620000a2906003906020860190620000d3565b50600580546001600160a01b0319166001600160a01b03939093169290921790915560065550620003169350505050565b828054620000e190620002d9565b90600052602060002090601f01602090048101928262000105576000855562000150565b82601f106200012057805160ff191683800117855562000150565b8280016001018555821562000150579182015b828111156200015057825182559160200191906001019062000133565b506200015e92915062000162565b5090565b5b808211156200015e576000815560010162000163565b80516001600160a01b03811681146200019157600080fd5b919050565b634e487b7160e01b600052604160045260246000fd5b600080600080600080600060e0888a031215620001c857600080fd5b620001d38862000179565b60208981015160408b015160608c015160808d0151949b5091995097509550906001600160401b03808211156200020957600080fd5b818b0191508b601f8301126200021e57600080fd5b81518181111562000233576200023362000196565b604051601f8201601f19908116603f011681019083821181831017156200025e576200025e62000196565b816040528281528e868487010111156200027757600080fd5b600093505b828410156200029b57848401860151818501870152928501926200027c565b82841115620002ad5760008684830101525b809850505050505050620002c460a0890162000179565b915060c0880151905092959891949750929550565b600181811c90821680620002ee57607f821691505b602082108114156200031057634e487b7160e01b600052602260045260246000fd5b50919050565b6108c680620003266000396000f3fe6080604052600436106100e85760003560e01c80638da5cb5b1161008a578063ce10cf8011610059578063ce10cf801461025b578063d22cf3a414610288578063e4940157146102a8578063f5b56c56146102bb57600080fd5b80638da5cb5b146101de57806391f90157146101fe578063b3cc167a14610223578063c623674f1461023957600080fd5b80633f9942ff116100c65780633f9942ff1461017857806348cd4cb11461019257806351cff8d9146101a857806386a82c94146101c857600080fd5b8063083c6323146100ed5780631bf822e514610116578063366c41eb14610140575b600080fd5b3480156100f957600080fd5b5061010360025481565b6040519081526020015b60405180910390f35b34801561012257600080fd5b50600a546101309060ff1681565b604051901515815260200161010d565b34801561014c57600080fd5b50600554610160906001600160a01b031681565b6040516001600160a01b03909116815260200161010d565b34801561018457600080fd5b506007546101309060ff1681565b34801561019e57600080fd5b5061010360015481565b3480156101b457600080fd5b506101306101c3366004610798565b6102d1565b3480156101d457600080fd5b5061010360065481565b3480156101ea57600080fd5b50600054610160906001600160a01b031681565b34801561020a57600080fd5b506007546101609061010090046001600160a01b031681565b34801561022f57600080fd5b5061010360045481565b34801561024557600080fd5b5061024e6104db565b60405161010d91906107c1565b34801561026757600080fd5b50610103610276366004610798565b60086020526000908152604090205481565b34801561029457600080fd5b506101306102a3366004610798565b610569565b6101306102b6366004610798565b6105e5565b3480156102c757600080fd5b5061010360095481565b6000600254431015806102e6575060075460ff165b6102ef57600080fd5b600754600090819060ff16156103215750506001600160a01b0382166000908152600860205260409020548290610415565b6000546001600160a01b0385811691161415610363575050600754600954600a8054600160ff199091161790556101009091046001600160a01b031690610415565b6007546001600160a01b038581166101009092041614156103f757600754600a546101009091046001600160a01b0316925060ff16156103c3575060075461010090046001600160a01b0316600090815260086020526040902054610415565b60095460075461010090046001600160a01b03166000908152600860205260409020546103f0919061082c565b9050610415565b50506001600160a01b03821660009081526008602052604090205482905b6000811161042257600080fd5b6001600160a01b0382166000908152600860205260408120805483929061044a90849061082c565b90915550506040516001600160a01b0385169082156108fc029083906000818181858888f19350505050158015610485573d6000803e3d6000fd5b50604080516001600160a01b038087168252841660208201529081018290527f0ec497a8ae5b1ba29c60470ef651def995fac3deebbdcc56c47a4e5f51a4c2bd9060600160405180910390a15060019392505050565b600380546104e890610843565b80601f016020809104026020016040519081016040528092919081815260200182805461051490610843565b80156105615780601f1061053657610100808354040283529160200191610561565b820191906000526020600020905b81548152906001019060200180831161054457829003601f168201915b505050505081565b6000805482906001600160a01b0380831691161461058657600080fd5b600254431061059457600080fd5b60075460ff16156105a457600080fd5b6007805460ff191660011790556040517f462b6ca7f632601af1295aeb320851f50e8e630a309173f23535845ea4bfb3b990600090a1600191505b50919050565b60006001544310156105f657600080fd5b600254431061060457600080fd5b60075460ff161561061457600080fd5b60005482906001600160a01b038083169116141561063157600080fd5b6001600160a01b038316600090815260086020526040812054610655903490610878565b9050600954811161066557600080fd5b6007546001600160a01b03610100909104811660009081526008602052604080822054928716825290208290558082116106b8576106b0600454836106aa9190610878565b82610780565b600955610711565b6007546001600160a01b03868116610100909204161461070e5760078054610100600160a81b0319166101006001600160a01b0388160217905560045461070a9083906107059084610878565b610780565b6009555b50805b600754600954604080516001600160a01b03808a16825260208201879052610100909404909316908301526060820183905260808201527ff152f4ff5e488c55370a2d53925a55055228ebd8ec95bd0251bbb299e48786b09060a00160405180910390a1506001949350505050565b600081831061078f5781610791565b825b9392505050565b6000602082840312156107aa57600080fd5b81356001600160a01b038116811461079157600080fd5b600060208083528351808285015260005b818110156107ee578581018301518582016040015282016107d2565b81811115610800576000604083870101525b50601f01601f1916929092016040019392505050565b634e487b7160e01b600052601160045260246000fd5b60008282101561083e5761083e610816565b500390565b600181811c9082168061085757607f821691505b602082108114156105df57634e487b7160e01b600052602260045260246000fd5b6000821982111561088b5761088b610816565b50019056fea26469706673582212201b0cef0d191f0efa2731216e057de9abebd63cbc2ceae4035263d5c057c97c1064736f6c63430008090033a2646970667358221220a969383d5498a90aaf3eb251832f87d234eb022ce772453fea02694c19ecbb9d64736f6c63430008090033",
  "immutableReferences": {},
  "source": "// SPDX-License-Identifier: MIT\r\npragma solidity >=0.4.21 <0.9.0;\r\n\r\nimport \"./Auction.sol\";\r\nimport \"./DeedRepository.sol\";\r\n\r\ncontract AuctionRepository {\r\n    Auction[] public auctions;\r\n\r\n    event AuctionCreated(address owner, uint256 numAuctions);\r\n\r\n    modifier contractIsDeedOwner(address _deedRepositoryAddress, uint256 _deedId) {\r\n        address deedOwner = DeedRepository(_deedRepositoryAddress).ownerOf(_deedId);\r\n        require(deedOwner == address(this));\r\n        _;\r\n    }\r\n\r\n    function createAuction(\r\n        uint256 _bidIncrement,\r\n        uint256 _startBlock,\r\n        uint256 _endBlock,\r\n        string memory _ipfsHash,\r\n        address _deedRepositoryAddress,\r\n        uint256 _deedId\r\n    ) public contractIsDeedOwner(_deedRepositoryAddress, _deedId) {\r\n        Auction newAuction = new Auction(\r\n            msg.sender,\r\n            _bidIncrement,\r\n            _startBlock,\r\n            _endBlock,\r\n            _ipfsHash,\r\n            _deedRepositoryAddress,\r\n            _deedId\r\n        );\r\n        auctions.push(newAuction);\r\n\r\n        emit AuctionCreated(msg.sender, auctions.length);\r\n    }\r\n\r\n    function deedTransfer(address _from, address _to, address _deedRepositoryAddress, uint256 _deedId) internal returns(bool) {\r\n        DeedRepository remoteContract = DeedRepository(_deedRepositoryAddress);\r\n        remoteContract.transferFrom(_from, _to, _deedId);\r\n        return true;\r\n    }\r\n\r\n    function getAuctions() public view returns (Auction[] memory) {\r\n        return auctions;\r\n    }\r\n\r\n    function getOwner(uint _i) public view returns (address) {\r\n        return auctions[_i].owner();\r\n    }\r\n\r\n    function getStartBlock(uint _i) public view returns (uint256) {\r\n        return auctions[_i].startBlock();\r\n    }\r\n\r\n    function getEndBlock(uint _i) public view returns (uint256) {\r\n        return auctions[_i].endBlock();\r\n    }\r\n\r\n    function getIpfsHash(uint _i) public view returns (string memory) {\r\n        return auctions[_i].ipfsHash();\r\n    }\r\n\r\n    function getBidIncrement(uint _i) public view returns (uint256) {\r\n        return auctions[_i].bidIncrement();\r\n    }\r\n\r\n    function getCanceled(uint _i) public view returns (bool) {\r\n        return auctions[_i].canceled();\r\n    }\r\n\r\n    function getHighestBidder(uint _i) public view returns (address) {\r\n        return auctions[_i].highestBidder();\r\n    }\r\n\r\n    function getHighestBindingBid(uint _i) public view returns (uint256) {\r\n        return auctions[_i].highestBindingBid();\r\n    }\r\n\r\n    function placeBid(uint _i) public payable returns (bool) {\r\n        return auctions[_i].placeBid{value:msg.value}(msg.sender);\r\n    }\r\n\r\n    function withdraw(uint _i) public returns (bool) {\r\n        if (msg.sender == auctions[_i].owner() && !auctions[_i].canceled()) {\r\n            deedTransfer(address(this), auctions[_i].highestBidder(), auctions[_i].deedRepositoryAddress(), auctions[_i].deedId());\r\n        }\r\n        return auctions[_i].withdraw(msg.sender);\r\n        \r\n    }\r\n\r\n    function cancelAuction(uint _i) public returns (bool) {\r\n        if(deedTransfer(address(this), auctions[_i].owner(), auctions[_i].deedRepositoryAddress(), auctions[_i].deedId())){\r\n            return auctions[_i].cancelAuction(msg.sender);\r\n        }\r\n        return false;\r\n    }\r\n}\r\n",
  "sourcePath": "E:\\ckb\\dapp\\eth-auction-dapp\\contracts\\AuctionRepository.sol",
  "compiler": {
    "name": "solc",
    "version": "0.8.9+commit.e5eed63a.Emscripten.clang"
  },
  "schemaVersion": "3.4.3",
  "updatedAt": "2021-10-11T09:48:50.277Z",
  "networkType": "ethereum",
  "devdoc": {
    "kind": "dev",
    "methods": {},
    "version": 1
  },
  "userdoc": {
    "kind": "user",
    "methods": {},
    "version": 1
  }
}