{
  "contractName": "Auction",
  "abi": [
    {
      "inputs": [
        {
          "internalType": "address",
          "name": "_owner",
          "type": "address"
        },
        {
          "internalType": "uint256",
          "name": "_bidIncrement",
          "type": "uint256"
        },
        {
          "internalType": "uint256",
          "name": "_startBlock",
          "type": "uint256"
        },
        {
          "internalType": "uint256",
          "name": "_endBlock",
          "type": "uint256"
        },
        {
          "internalType": "string",
          "name": "_ipfsHash",
          "type": "string"
        },
        {
          "internalType": "address",
          "name": "_deedRepositoryAddress",
          "type": "address"
        },
        {
          "internalType": "uint256",
          "name": "_deedId",
          "type": "uint256"
        }
      ],
      "stateMutability": "nonpayable",
      "type": "constructor"
    },
    {
      "anonymous": false,
      "inputs": [
        {
          "indexed": false,
          "internalType": "address",
          "name": "bidder",
          "type": "address"
        },
        {
          "indexed": false,
          "internalType": "uint256",
          "name": "bid",
          "type": "uint256"
        },
        {
          "indexed": false,
          "internalType": "address",
          "name": "highestBidder",
          "type": "address"
        },
        {
          "indexed": false,
          "internalType": "uint256",
          "name": "highestBid",
          "type": "uint256"
        },
        {
          "indexed": false,
          "internalType": "uint256",
          "name": "highestBindingBid",
          "type": "uint256"
        }
      ],
      "name": "LogBid",
      "type": "event"
    },
    {
      "anonymous": false,
      "inputs": [],
      "name": "LogCanceled",
      "type": "event"
    },
    {
      "anonymous": false,
      "inputs": [
        {
          "indexed": false,
          "internalType": "address",
          "name": "withdrawer",
          "type": "address"
        },
        {
          "indexed": false,
          "internalType": "address",
          "name": "withdrawalAccount",
          "type": "address"
        },
        {
          "indexed": false,
          "internalType": "uint256",
          "name": "amount",
          "type": "uint256"
        }
      ],
      "name": "LogWithdrawal",
      "type": "event"
    },
    {
      "inputs": [],
      "name": "bidIncrement",
      "outputs": [
        {
          "internalType": "uint256",
          "name": "",
          "type": "uint256"
        }
      ],
      "stateMutability": "view",
      "type": "function"
    },
    {
      "inputs": [],
      "name": "canceled",
      "outputs": [
        {
          "internalType": "bool",
          "name": "",
          "type": "bool"
        }
      ],
      "stateMutability": "view",
      "type": "function"
    },
    {
      "inputs": [],
      "name": "deedId",
      "outputs": [
        {
          "internalType": "uint256",
          "name": "",
          "type": "uint256"
        }
      ],
      "stateMutability": "view",
      "type": "function"
    },
    {
      "inputs": [],
      "name": "deedRepositoryAddress",
      "outputs": [
        {
          "internalType": "address",
          "name": "",
          "type": "address"
        }
      ],
      "stateMutability": "view",
      "type": "function"
    },
    {
      "inputs": [],
      "name": "endBlock",
      "outputs": [
        {
          "internalType": "uint256",
          "name": "",
          "type": "uint256"
        }
      ],
      "stateMutability": "view",
      "type": "function"
    },
    {
      "inputs": [
        {
          "internalType": "address",
          "name": "",
          "type": "address"
        }
      ],
      "name": "fundsByBidder",
      "outputs": [
        {
          "internalType": "uint256",
          "name": "",
          "type": "uint256"
        }
      ],
      "stateMutability": "view",
      "type": "function"
    },
    {
      "inputs": [],
      "name": "highestBidder",
      "outputs": [
        {
          "internalType": "address",
          "name": "",
          "type": "address"
        }
      ],
      "stateMutability": "view",
      "type": "function"
    },
    {
      "inputs": [],
      "name": "highestBindingBid",
      "outputs": [
        {
          "internalType": "uint256",
          "name": "",
          "type": "uint256"
        }
      ],
      "stateMutability": "view",
      "type": "function"
    },
    {
      "inputs": [],
      "name": "ipfsHash",
      "outputs": [
        {
          "internalType": "string",
          "name": "",
          "type": "string"
        }
      ],
      "stateMutability": "view",
      "type": "function"
    },
    {
      "inputs": [],
      "name": "owner",
      "outputs": [
        {
          "internalType": "address",
          "name": "",
          "type": "address"
        }
      ],
      "stateMutability": "view",
      "type": "function"
    },
    {
      "inputs": [],
      "name": "ownerHasWithdrawn",
      "outputs": [
        {
          "internalType": "bool",
          "name": "",
          "type": "bool"
        }
      ],
      "stateMutability": "view",
      "type": "function"
    },
    {
      "inputs": [],
      "name": "startBlock",
      "outputs": [
        {
          "internalType": "uint256",
          "name": "",
          "type": "uint256"
        }
      ],
      "stateMutability": "view",
      "type": "function"
    },
    {
      "inputs": [
        {
          "internalType": "address",
          "name": "_origin",
          "type": "address"
        }
      ],
      "name": "placeBid",
      "outputs": [
        {
          "internalType": "bool",
          "name": "",
          "type": "bool"
        }
      ],
      "stateMutability": "payable",
      "type": "function"
    },
    {
      "inputs": [
        {
          "internalType": "address",
          "name": "_origin",
          "type": "address"
        }
      ],
      "name": "withdraw",
      "outputs": [
        {
          "internalType": "bool",
          "name": "",
          "type": "bool"
        }
      ],
      "stateMutability": "nonpayable",
      "type": "function"
    },
    {
      "inputs": [
        {
          "internalType": "address",
          "name": "_origin",
          "type": "address"
        }
      ],
      "name": "cancelAuction",
      "outputs": [
        {
          "internalType": "bool",
          "name": "",
          "type": "bool"
        }
      ],
      "stateMutability": "nonpayable",
      "type": "function"
    }
  ],
  "bytecode": "0x60806040523480156200001157600080fd5b5060405162000bec38038062000bec8339810160408190526200003491620001ac565b8385106200004157600080fd5b438510156200004f57600080fd5b6001600160a01b0387166200006357600080fd5b600080546001600160a01b0319166001600160a01b0389161790556004869055600185905560028490558251620000a2906003906020860190620000d3565b50600580546001600160a01b0319166001600160a01b03939093169290921790915560065550620003169350505050565b828054620000e190620002d9565b90600052602060002090601f01602090048101928262000105576000855562000150565b82601f106200012057805160ff191683800117855562000150565b8280016001018555821562000150579182015b828111156200015057825182559160200191906001019062000133565b506200015e92915062000162565b5090565b5b808211156200015e576000815560010162000163565b80516001600160a01b03811681146200019157600080fd5b919050565b634e487b7160e01b600052604160045260246000fd5b600080600080600080600060e0888a031215620001c857600080fd5b620001d38862000179565b60208981015160408b015160608c015160808d0151949b5091995097509550906001600160401b03808211156200020957600080fd5b818b0191508b601f8301126200021e57600080fd5b81518181111562000233576200023362000196565b604051601f8201601f19908116603f011681019083821181831017156200025e576200025e62000196565b816040528281528e868487010111156200027757600080fd5b600093505b828410156200029b57848401860151818501870152928501926200027c565b82841115620002ad5760008684830101525b809850505050505050620002c460a0890162000179565b915060c0880151905092959891949750929550565b600181811c90821680620002ee57607f821691505b602082108114156200031057634e487b7160e01b600052602260045260246000fd5b50919050565b6108c680620003266000396000f3fe6080604052600436106100e85760003560e01c80638da5cb5b1161008a578063ce10cf8011610059578063ce10cf801461025b578063d22cf3a414610288578063e4940157146102a8578063f5b56c56146102bb57600080fd5b80638da5cb5b146101de57806391f90157146101fe578063b3cc167a14610223578063c623674f1461023957600080fd5b80633f9942ff116100c65780633f9942ff1461017857806348cd4cb11461019257806351cff8d9146101a857806386a82c94146101c857600080fd5b8063083c6323146100ed5780631bf822e514610116578063366c41eb14610140575b600080fd5b3480156100f957600080fd5b5061010360025481565b6040519081526020015b60405180910390f35b34801561012257600080fd5b50600a546101309060ff1681565b604051901515815260200161010d565b34801561014c57600080fd5b50600554610160906001600160a01b031681565b6040516001600160a01b03909116815260200161010d565b34801561018457600080fd5b506007546101309060ff1681565b34801561019e57600080fd5b5061010360015481565b3480156101b457600080fd5b506101306101c3366004610798565b6102d1565b3480156101d457600080fd5b5061010360065481565b3480156101ea57600080fd5b50600054610160906001600160a01b031681565b34801561020a57600080fd5b506007546101609061010090046001600160a01b031681565b34801561022f57600080fd5b5061010360045481565b34801561024557600080fd5b5061024e6104db565b60405161010d91906107c1565b34801561026757600080fd5b50610103610276366004610798565b60086020526000908152604090205481565b34801561029457600080fd5b506101306102a3366004610798565b610569565b6101306102b6366004610798565b6105e5565b3480156102c757600080fd5b5061010360095481565b6000600254431015806102e6575060075460ff165b6102ef57600080fd5b600754600090819060ff16156103215750506001600160a01b0382166000908152600860205260409020548290610415565b6000546001600160a01b0385811691161415610363575050600754600954600a8054600160ff199091161790556101009091046001600160a01b031690610415565b6007546001600160a01b038581166101009092041614156103f757600754600a546101009091046001600160a01b0316925060ff16156103c3575060075461010090046001600160a01b0316600090815260086020526040902054610415565b60095460075461010090046001600160a01b03166000908152600860205260409020546103f0919061082c565b9050610415565b50506001600160a01b03821660009081526008602052604090205482905b6000811161042257600080fd5b6001600160a01b0382166000908152600860205260408120805483929061044a90849061082c565b90915550506040516001600160a01b0385169082156108fc029083906000818181858888f19350505050158015610485573d6000803e3d6000fd5b50604080516001600160a01b038087168252841660208201529081018290527f0ec497a8ae5b1ba29c60470ef651def995fac3deebbdcc56c47a4e5f51a4c2bd9060600160405180910390a15060019392505050565b600380546104e890610843565b80601f016020809104026020016040519081016040528092919081815260200182805461051490610843565b80156105615780601f1061053657610100808354040283529160200191610561565b820191906000526020600020905b81548152906001019060200180831161054457829003601f168201915b505050505081565b6000805482906001600160a01b0380831691161461058657600080fd5b600254431061059457600080fd5b60075460ff16156105a457600080fd5b6007805460ff191660011790556040517f462b6ca7f632601af1295aeb320851f50e8e630a309173f23535845ea4bfb3b990600090a1600191505b50919050565b60006001544310156105f657600080fd5b600254431061060457600080fd5b60075460ff161561061457600080fd5b60005482906001600160a01b038083169116141561063157600080fd5b6001600160a01b038316600090815260086020526040812054610655903490610878565b9050600954811161066557600080fd5b6007546001600160a01b03610100909104811660009081526008602052604080822054928716825290208290558082116106b8576106b0600454836106aa9190610878565b82610780565b600955610711565b6007546001600160a01b03868116610100909204161461070e5760078054610100600160a81b0319166101006001600160a01b0388160217905560045461070a9083906107059084610878565b610780565b6009555b50805b600754600954604080516001600160a01b03808a16825260208201879052610100909404909316908301526060820183905260808201527ff152f4ff5e488c55370a2d53925a55055228ebd8ec95bd0251bbb299e48786b09060a00160405180910390a1506001949350505050565b600081831061078f5781610791565b825b9392505050565b6000602082840312156107aa57600080fd5b81356001600160a01b038116811461079157600080fd5b600060208083528351808285015260005b818110156107ee578581018301518582016040015282016107d2565b81811115610800576000604083870101525b50601f01601f1916929092016040019392505050565b634e487b7160e01b600052601160045260246000fd5b60008282101561083e5761083e610816565b500390565b600181811c9082168061085757607f821691505b602082108114156105df57634e487b7160e01b600052602260045260246000fd5b6000821982111561088b5761088b610816565b50019056fea26469706673582212201b0cef0d191f0efa2731216e057de9abebd63cbc2ceae4035263d5c057c97c1064736f6c63430008090033",
  "immutableReferences": {},
  "source": "// SPDX-License-Identifier: MIT\r\npragma solidity >=0.4.21 <0.9.0;\r\n\r\nimport \"@openzeppelin/contracts/utils/math/Math.sol\";\r\nimport \"./DeedRepository.sol\";\r\n\r\ncontract Auction {\r\n    // using Math for uint256;\r\n\r\n    // static\r\n    address public owner;\r\n    uint256 public startBlock;\r\n    uint256 public endBlock;\r\n    string public ipfsHash;\r\n    uint256 public bidIncrement;\r\n    address public deedRepositoryAddress;\r\n    uint256 public deedId;\r\n\r\n    // state\r\n    bool public canceled;\r\n    address public highestBidder;\r\n    mapping(address => uint256) public fundsByBidder;\r\n    uint256 public highestBindingBid;\r\n    bool public ownerHasWithdrawn;\r\n\r\n    event LogBid(\r\n        address bidder,\r\n        uint256 bid,\r\n        address highestBidder,\r\n        uint256 highestBid,\r\n        uint256 highestBindingBid\r\n    );\r\n\r\n    event LogWithdrawal(\r\n        address withdrawer,\r\n        address withdrawalAccount,\r\n        uint256 amount\r\n    );\r\n\r\n    event LogCanceled();\r\n\r\n    constructor(\r\n        address _owner,\r\n        uint256 _bidIncrement,\r\n        uint256 _startBlock,\r\n        uint256 _endBlock,\r\n        string memory _ipfsHash,\r\n        address _deedRepositoryAddress,\r\n        uint256 _deedId\r\n    ) {\r\n        require(_startBlock < _endBlock);\r\n        require(_startBlock >= block.number);\r\n        require(_owner != address(0));\r\n\r\n        owner = _owner;\r\n        bidIncrement = _bidIncrement;\r\n        startBlock = _startBlock;\r\n        endBlock = _endBlock;\r\n        ipfsHash = _ipfsHash;\r\n        deedRepositoryAddress = _deedRepositoryAddress;\r\n        deedId = _deedId;\r\n    }\r\n\r\n    modifier onlyAfterStart() {\r\n        require(block.number >= startBlock);\r\n        _;\r\n    }\r\n\r\n    modifier onlyBeforeEnd() {\r\n        require(block.number < endBlock);\r\n        _;\r\n    }\r\n\r\n    modifier onlyNotCanceled() {\r\n        require(!canceled);\r\n        _;\r\n    }\r\n\r\n    modifier onlyNotOwner(address _origin) {\r\n        require(_origin != owner);\r\n        _;\r\n    }\r\n\r\n    function placeBid(address _origin)\r\n        payable\r\n        public\r\n        onlyAfterStart\r\n        onlyBeforeEnd\r\n        onlyNotCanceled\r\n        onlyNotOwner(_origin)\r\n        returns (bool)\r\n    {\r\n        uint newBid = fundsByBidder[_origin] + msg.value;\r\n        require(newBid > highestBindingBid);\r\n\r\n        uint highestBid = fundsByBidder[highestBidder];\r\n        fundsByBidder[_origin] = newBid;\r\n\r\n        if (newBid <= highestBid) {\r\n            highestBindingBid = Math.min(newBid + bidIncrement, highestBid);\r\n        } else {\r\n            if (_origin != highestBidder) {\r\n                highestBidder = _origin;\r\n                highestBindingBid = Math.min(newBid, highestBid + bidIncrement);\r\n            }\r\n            highestBid = newBid;\r\n        }\r\n\r\n        emit LogBid(_origin, newBid, highestBidder, highestBid, highestBindingBid);\r\n        return true;\r\n    }\r\n\r\n    function withdraw(address _origin) public returns (bool) {\r\n        require(block.number >= endBlock || canceled);\r\n\r\n        address withdrawalAccount;\r\n        uint withdrawalAmount;\r\n\r\n        if (canceled) {\r\n            withdrawalAccount = _origin;\r\n            withdrawalAmount = fundsByBidder[withdrawalAccount];\r\n        } else {\r\n            if (_origin == owner) {\r\n                withdrawalAccount = highestBidder;\r\n                withdrawalAmount = highestBindingBid;\r\n                ownerHasWithdrawn = true;\r\n            } else if (_origin == highestBidder) {\r\n                withdrawalAccount = highestBidder;\r\n                if (ownerHasWithdrawn) {\r\n                    withdrawalAmount = fundsByBidder[highestBidder];\r\n                } else {\r\n                    withdrawalAmount = fundsByBidder[highestBidder] - highestBindingBid;\r\n                }\r\n            } else {\r\n                withdrawalAccount = _origin;\r\n                withdrawalAmount = fundsByBidder[withdrawalAccount];\r\n            }\r\n        }\r\n\r\n        require(withdrawalAmount > 0);\r\n\r\n        fundsByBidder[withdrawalAccount] -= withdrawalAmount;\r\n        payable(_origin).transfer(withdrawalAmount);\r\n\r\n        emit LogWithdrawal(_origin, withdrawalAccount, withdrawalAmount);\r\n        return true;\r\n    }\r\n\r\n    modifier onlyOwner(address _origin) {\r\n        require(_origin == owner);\r\n        _;\r\n    }\r\n\r\n    function cancelAuction(address _origin) public onlyOwner(_origin) onlyBeforeEnd onlyNotCanceled returns (bool) {\r\n        canceled = true;\r\n        emit LogCanceled();\r\n        return true;\r\n    }\r\n}\r\n",
  "sourcePath": "E:\\ckb\\dapp\\eth-auction-dapp\\contracts\\Auction.sol",
  "compiler": {
    "name": "solc",
    "version": "0.8.9+commit.e5eed63a.Emscripten.clang"
  },
  "schemaVersion": "3.4.3",
  "updatedAt": "2021-10-11T09:46:08.238Z",
  "devdoc": {
    "kind": "dev",
    "methods": {},
    "version": 1
  },
  "userdoc": {
    "kind": "user",
    "methods": {},
    "version": 1
  }
}