{
  "contractName": "DeedRepository",
  "abi": [
    {
      "inputs": [],
      "stateMutability": "nonpayable",
      "type": "constructor"
    },
    {
      "anonymous": false,
      "inputs": [
        {
          "indexed": true,
          "internalType": "address",
          "name": "owner",
          "type": "address"
        },
        {
          "indexed": true,
          "internalType": "address",
          "name": "approved",
          "type": "address"
        },
        {
          "indexed": true,
          "internalType": "uint256",
          "name": "tokenId",
          "type": "uint256"
        }
      ],
      "name": "Approval",
      "type": "event"
    },
    {
      "anonymous": false,
      "inputs": [
        {
          "indexed": true,
          "internalType": "address",
          "name": "owner",
          "type": "address"
        },
        {
          "indexed": true,
          "internalType": "address",
          "name": "operator",
          "type": "address"
        },
        {
          "indexed": false,
          "internalType": "bool",
          "name": "approved",
          "type": "bool"
        }
      ],
      "name": "ApprovalForAll",
      "type": "event"
    },
    {
      "anonymous": false,
      "inputs": [
        {
          "indexed": false,
          "internalType": "address",
          "name": "by",
          "type": "address"
        },
        {
          "indexed": false,
          "internalType": "uint256",
          "name": "tokenId",
          "type": "uint256"
        }
      ],
      "name": "DeedRegistered",
      "type": "event"
    },
    {
      "anonymous": false,
      "inputs": [
        {
          "indexed": true,
          "internalType": "address",
          "name": "from",
          "type": "address"
        },
        {
          "indexed": true,
          "internalType": "address",
          "name": "to",
          "type": "address"
        },
        {
          "indexed": true,
          "internalType": "uint256",
          "name": "tokenId",
          "type": "uint256"
        }
      ],
      "name": "Transfer",
      "type": "event"
    },
    {
      "inputs": [
        {
          "internalType": "address",
          "name": "to",
          "type": "address"
        },
        {
          "internalType": "uint256",
          "name": "tokenId",
          "type": "uint256"
        }
      ],
      "name": "approve",
      "outputs": [],
      "stateMutability": "nonpayable",
      "type": "function"
    },
    {
      "inputs": [
        {
          "internalType": "address",
          "name": "owner",
          "type": "address"
        }
      ],
      "name": "balanceOf",
      "outputs": [
        {
          "internalType": "uint256",
          "name": "",
          "type": "uint256"
        }
      ],
      "stateMutability": "view",
      "type": "function",
      "constant": true
    },
    {
      "inputs": [],
      "name": "deedNum",
      "outputs": [
        {
          "internalType": "uint256",
          "name": "",
          "type": "uint256"
        }
      ],
      "stateMutability": "view",
      "type": "function",
      "constant": true
    },
    {
      "inputs": [
        {
          "internalType": "uint256",
          "name": "tokenId",
          "type": "uint256"
        }
      ],
      "name": "getApproved",
      "outputs": [
        {
          "internalType": "address",
          "name": "",
          "type": "address"
        }
      ],
      "stateMutability": "view",
      "type": "function",
      "constant": true
    },
    {
      "inputs": [
        {
          "internalType": "address",
          "name": "owner",
          "type": "address"
        },
        {
          "internalType": "address",
          "name": "operator",
          "type": "address"
        }
      ],
      "name": "isApprovedForAll",
      "outputs": [
        {
          "internalType": "bool",
          "name": "",
          "type": "bool"
        }
      ],
      "stateMutability": "view",
      "type": "function",
      "constant": true
    },
    {
      "inputs": [],
      "name": "name",
      "outputs": [
        {
          "internalType": "string",
          "name": "",
          "type": "string"
        }
      ],
      "stateMutability": "view",
      "type": "function",
      "constant": true
    },
    {
      "inputs": [
        {
          "internalType": "uint256",
          "name": "tokenId",
          "type": "uint256"
        }
      ],
      "name": "ownerOf",
      "outputs": [
        {
          "internalType": "address",
          "name": "",
          "type": "address"
        }
      ],
      "stateMutability": "view",
      "type": "function",
      "constant": true
    },
    {
      "inputs": [
        {
          "internalType": "address",
          "name": "from",
          "type": "address"
        },
        {
          "internalType": "address",
          "name": "to",
          "type": "address"
        },
        {
          "internalType": "uint256",
          "name": "tokenId",
          "type": "uint256"
        }
      ],
      "name": "safeTransferFrom",
      "outputs": [],
      "stateMutability": "nonpayable",
      "type": "function"
    },
    {
      "inputs": [
        {
          "internalType": "address",
          "name": "from",
          "type": "address"
        },
        {
          "internalType": "address",
          "name": "to",
          "type": "address"
        },
        {
          "internalType": "uint256",
          "name": "tokenId",
          "type": "uint256"
        },
        {
          "internalType": "bytes",
          "name": "_data",
          "type": "bytes"
        }
      ],
      "name": "safeTransferFrom",
      "outputs": [],
      "stateMutability": "nonpayable",
      "type": "function"
    },
    {
      "inputs": [
        {
          "internalType": "address",
          "name": "operator",
          "type": "address"
        },
        {
          "internalType": "bool",
          "name": "approved",
          "type": "bool"
        }
      ],
      "name": "setApprovalForAll",
      "outputs": [],
      "stateMutability": "nonpayable",
      "type": "function"
    },
    {
      "inputs": [
        {
          "internalType": "bytes4",
          "name": "interfaceId",
          "type": "bytes4"
        }
      ],
      "name": "supportsInterface",
      "outputs": [
        {
          "internalType": "bool",
          "name": "",
          "type": "bool"
        }
      ],
      "stateMutability": "view",
      "type": "function",
      "constant": true
    },
    {
      "inputs": [],
      "name": "symbol",
      "outputs": [
        {
          "internalType": "string",
          "name": "",
          "type": "string"
        }
      ],
      "stateMutability": "view",
      "type": "function",
      "constant": true
    },
    {
      "inputs": [
        {
          "internalType": "uint256",
          "name": "tokenId",
          "type": "uint256"
        }
      ],
      "name": "tokenURI",
      "outputs": [
        {
          "internalType": "string",
          "name": "",
          "type": "string"
        }
      ],
      "stateMutability": "view",
      "type": "function",
      "constant": true
    },
    {
      "inputs": [
        {
          "internalType": "address",
          "name": "from",
          "type": "address"
        },
        {
          "internalType": "address",
          "name": "to",
          "type": "address"
        },
        {
          "internalType": "uint256",
          "name": "tokenId",
          "type": "uint256"
        }
      ],
      "name": "transferFrom",
      "outputs": [],
      "stateMutability": "nonpayable",
      "type": "function"
    },
    {
      "inputs": [],
      "name": "registerDeed",
      "outputs": [],
      "stateMutability": "nonpayable",
      "type": "function"
    },
    {
      "inputs": [],
      "name": "getDeedId",
      "outputs": [
        {
          "internalType": "uint256",
          "name": "",
          "type": "uint256"
        }
      ],
      "stateMutability": "view",
      "type": "function",
      "constant": true
    }
  ],
  "bytecode": "0x60806040523480156200001157600080fd5b50604080518082018252600e81526d446565645265706f7369746f727960901b602080830191825283518085019094526008845267444545445245504f60c01b908401528151919291620000689160009162000087565b5080516200007e90600190602084019062000087565b5050506200016a565b82805462000095906200012d565b90600052602060002090601f016020900481019282620000b9576000855562000104565b82601f10620000d457805160ff191683800117855562000104565b8280016001018555821562000104579182015b8281111562000104578251825591602001919060010190620000e7565b506200011292915062000116565b5090565b5b8082111562000112576000815560010162000117565b600181811c908216806200014257607f821691505b602082108114156200016457634e487b7160e01b600052602260045260246000fd5b50919050565b611445806200017a6000396000f3fe608060405234801561001057600080fd5b50600436106101005760003560e01c80636352211e11610097578063b823b29b11610066578063b823b29b14610208578063b88d4fde14610210578063c87b56dd14610223578063e985e9c51461023657600080fd5b80636352211e146101c757806370a08231146101da57806395d89b41146101ed578063a22cb465146101f557600080fd5b8063161ef848116100d3578063161ef8481461018257806323b872dd1461019857806342842e0e146101ab57806346680497146101be57600080fd5b806301ffc9a71461010557806306fdde031461012d578063081812fc14610142578063095ea7b31461016d575b600080fd5b610118610113366004610f55565b610272565b60405190151581526020015b60405180910390f35b6101356102c4565b6040516101249190610fca565b610155610150366004610fdd565b610356565b6040516001600160a01b039091168152602001610124565b61018061017b366004611012565b6103f0565b005b61018a610506565b604051908152602001610124565b6101806101a636600461103c565b61051c565b6101806101b936600461103c565b61054d565b61018a60065481565b6101556101d5366004610fdd565b610568565b61018a6101e8366004611078565b6105df565b610135610666565b610180610203366004611093565b610675565b61018061073a565b61018061021e3660046110e5565b610797565b610135610231366004610fdd565b6107cf565b6101186102443660046111c1565b6001600160a01b03918216600090815260056020908152604080832093909416825291909152205460ff1690565b60006001600160e01b031982166380ac58cd60e01b14806102a357506001600160e01b03198216635b5e139f60e01b145b806102be57506301ffc9a760e01b6001600160e01b03198316145b92915050565b6060600080546102d3906111f4565b80601f01602080910402602001604051908101604052809291908181526020018280546102ff906111f4565b801561034c5780601f106103215761010080835404028352916020019161034c565b820191906000526020600020905b81548152906001019060200180831161032f57829003601f168201915b5050505050905090565b6000818152600260205260408120546001600160a01b03166103d45760405162461bcd60e51b815260206004820152602c60248201527f4552433732313a20617070726f76656420717565727920666f72206e6f6e657860448201526b34b9ba32b73a103a37b5b2b760a11b60648201526084015b60405180910390fd5b506000908152600460205260409020546001600160a01b031690565b60006103fb82610568565b9050806001600160a01b0316836001600160a01b031614156104695760405162461bcd60e51b815260206004820152602160248201527f4552433732313a20617070726f76616c20746f2063757272656e74206f776e656044820152603960f91b60648201526084016103cb565b336001600160a01b038216148061048557506104858133610244565b6104f75760405162461bcd60e51b815260206004820152603860248201527f4552433732313a20617070726f76652063616c6c6572206973206e6f74206f7760448201527f6e6572206e6f7220617070726f76656420666f7220616c6c000000000000000060648201526084016103cb565b61050183836108b7565b505050565b600060016006546105179190611245565b905090565b6105263382610925565b6105425760405162461bcd60e51b81526004016103cb9061125c565b610501838383610a1c565b61050183838360405180602001604052806000815250610797565b6000818152600260205260408120546001600160a01b0316806102be5760405162461bcd60e51b815260206004820152602960248201527f4552433732313a206f776e657220717565727920666f72206e6f6e657869737460448201526832b73a103a37b5b2b760b91b60648201526084016103cb565b60006001600160a01b03821661064a5760405162461bcd60e51b815260206004820152602a60248201527f4552433732313a2062616c616e636520717565727920666f7220746865207a65604482015269726f206164647265737360b01b60648201526084016103cb565b506001600160a01b031660009081526003602052604090205490565b6060600180546102d3906111f4565b6001600160a01b0382163314156106ce5760405162461bcd60e51b815260206004820152601960248201527f4552433732313a20617070726f766520746f2063616c6c65720000000000000060448201526064016103cb565b3360008181526005602090815260408083206001600160a01b03871680855290835292819020805460ff191686151590811790915590519081529192917f17307eab39ab6107e8899845ad3d59bd9653f200f220920489ca2b5937696c31910160405180910390a35050565b600680546000918261074b836112ad565b91905055905061075b3382610bbc565b60408051338152602081018390527f32cc5b866d6a5990a7f987020b639157969cb963b9beb2cdf41df22ab152df35910160405180910390a150565b6107a13383610925565b6107bd5760405162461bcd60e51b81526004016103cb9061125c565b6107c984848484610cfe565b50505050565b6000818152600260205260409020546060906001600160a01b031661084e5760405162461bcd60e51b815260206004820152602f60248201527f4552433732314d657461646174613a2055524920717565727920666f72206e6f60448201526e3732bc34b9ba32b73a103a37b5b2b760891b60648201526084016103cb565b600061086560408051602081019091526000815290565b9050600081511161088557604051806020016040528060008152506108b0565b8061088f84610d31565b6040516020016108a09291906112c8565b6040516020818303038152906040525b9392505050565b600081815260046020526040902080546001600160a01b0319166001600160a01b03841690811790915581906108ec82610568565b6001600160a01b03167f8c5be1e5ebec7d5bd14f71427d1e84f3dd0314c0f7b2291e5b200ac8c7c3b92560405160405180910390a45050565b6000818152600260205260408120546001600160a01b031661099e5760405162461bcd60e51b815260206004820152602c60248201527f4552433732313a206f70657261746f7220717565727920666f72206e6f6e657860448201526b34b9ba32b73a103a37b5b2b760a11b60648201526084016103cb565b60006109a983610568565b9050806001600160a01b0316846001600160a01b031614806109e45750836001600160a01b03166109d984610356565b6001600160a01b0316145b80610a1457506001600160a01b0380821660009081526005602090815260408083209388168352929052205460ff165b949350505050565b826001600160a01b0316610a2f82610568565b6001600160a01b031614610a975760405162461bcd60e51b815260206004820152602960248201527f4552433732313a207472616e73666572206f6620746f6b656e2074686174206960448201526839903737ba1037bbb760b91b60648201526084016103cb565b6001600160a01b038216610af95760405162461bcd60e51b8152602060048201526024808201527f4552433732313a207472616e7366657220746f20746865207a65726f206164646044820152637265737360e01b60648201526084016103cb565b610b046000826108b7565b6001600160a01b0383166000908152600360205260408120805460019290610b2d908490611245565b90915550506001600160a01b0382166000908152600360205260408120805460019290610b5b9084906112f7565b909155505060008181526002602052604080822080546001600160a01b0319166001600160a01b0386811691821790925591518493918716917fddf252ad1be2c89b69c2b068fc378daa952ba7f163c4a11628f55a4df523b3ef91a4505050565b6001600160a01b038216610c125760405162461bcd60e51b815260206004820181905260248201527f4552433732313a206d696e7420746f20746865207a65726f206164647265737360448201526064016103cb565b6000818152600260205260409020546001600160a01b031615610c775760405162461bcd60e51b815260206004820152601c60248201527f4552433732313a20746f6b656e20616c7265616479206d696e7465640000000060448201526064016103cb565b6001600160a01b0382166000908152600360205260408120805460019290610ca09084906112f7565b909155505060008181526002602052604080822080546001600160a01b0319166001600160a01b03861690811790915590518392907fddf252ad1be2c89b69c2b068fc378daa952ba7f163c4a11628f55a4df523b3ef908290a45050565b610d09848484610a1c565b610d1584848484610e2f565b6107c95760405162461bcd60e51b81526004016103cb9061130f565b606081610d555750506040805180820190915260018152600360fc1b602082015290565b8160005b8115610d7f5780610d69816112ad565b9150610d789050600a83611377565b9150610d59565b60008167ffffffffffffffff811115610d9a57610d9a6110cf565b6040519080825280601f01601f191660200182016040528015610dc4576020820181803683370190505b5090505b8415610a1457610dd9600183611245565b9150610de6600a8661138b565b610df19060306112f7565b60f81b818381518110610e0657610e0661139f565b60200101906001600160f81b031916908160001a905350610e28600a86611377565b9450610dc8565b60006001600160a01b0384163b15610f3157604051630a85bd0160e11b81526001600160a01b0385169063150b7a0290610e739033908990889088906004016113b5565b602060405180830381600087803b158015610e8d57600080fd5b505af1925050508015610ebd575060408051601f3d908101601f19168201909252610eba918101906113f2565b60015b610f17573d808015610eeb576040519150601f19603f3d011682016040523d82523d6000602084013e610ef0565b606091505b508051610f0f5760405162461bcd60e51b81526004016103cb9061130f565b805181602001fd5b6001600160e01b031916630a85bd0160e11b149050610a14565b506001949350505050565b6001600160e01b031981168114610f5257600080fd5b50565b600060208284031215610f6757600080fd5b81356108b081610f3c565b60005b83811015610f8d578181015183820152602001610f75565b838111156107c95750506000910152565b60008151808452610fb6816020860160208601610f72565b601f01601f19169290920160200192915050565b6020815260006108b06020830184610f9e565b600060208284031215610fef57600080fd5b5035919050565b80356001600160a01b038116811461100d57600080fd5b919050565b6000806040838503121561102557600080fd5b61102e83610ff6565b946020939093013593505050565b60008060006060848603121561105157600080fd5b61105a84610ff6565b925061106860208501610ff6565b9150604084013590509250925092565b60006020828403121561108a57600080fd5b6108b082610ff6565b600080604083850312156110a657600080fd5b6110af83610ff6565b9150602083013580151581146110c457600080fd5b809150509250929050565b634e487b7160e01b600052604160045260246000fd5b600080600080608085870312156110fb57600080fd5b61110485610ff6565b935061111260208601610ff6565b925060408501359150606085013567ffffffffffffffff8082111561113657600080fd5b818701915087601f83011261114a57600080fd5b81358181111561115c5761115c6110cf565b604051601f8201601f19908116603f01168101908382118183101715611184576111846110cf565b816040528281528a602084870101111561119d57600080fd5b82602086016020830137600060208483010152809550505050505092959194509250565b600080604083850312156111d457600080fd5b6111dd83610ff6565b91506111eb60208401610ff6565b90509250929050565b600181811c9082168061120857607f821691505b6020821081141561122957634e487b7160e01b600052602260045260246000fd5b50919050565b634e487b7160e01b600052601160045260246000fd5b6000828210156112575761125761122f565b500390565b60208082526031908201527f4552433732313a207472616e736665722063616c6c6572206973206e6f74206f6040820152701ddb995c881b9bdc88185c1c1c9bdd9959607a1b606082015260800190565b60006000198214156112c1576112c161122f565b5060010190565b600083516112da818460208801610f72565b8351908301906112ee818360208801610f72565b01949350505050565b6000821982111561130a5761130a61122f565b500190565b60208082526032908201527f4552433732313a207472616e7366657220746f206e6f6e20455243373231526560408201527131b2b4bb32b91034b6b83632b6b2b73a32b960711b606082015260800190565b634e487b7160e01b600052601260045260246000fd5b60008261138657611386611361565b500490565b60008261139a5761139a611361565b500690565b634e487b7160e01b600052603260045260246000fd5b6001600160a01b03858116825284166020820152604081018390526080606082018190526000906113e890830184610f9e565b9695505050505050565b60006020828403121561140457600080fd5b81516108b081610f3c56fea26469706673582212205321ac774d5830814257ecdf4a03d91f4f44283611666436e580b3125a7ec8cd64736f6c63430008090033",
  "immutableReferences": {},
  "source": "// SPDX-License-Identifier: MIT\r\npragma solidity >=0.4.21 <0.9.0;\r\n\r\nimport \"@openzeppelin/contracts/token/ERC721/ERC721.sol\";\r\n\r\ncontract DeedRepository is ERC721 {\r\n    uint256 public deedNum;\r\n\r\n    event DeedRegistered(address by, uint256 tokenId);\r\n\r\n    constructor() ERC721(\"DeedRepository\", \"DEEDREPO\") {\r\n    }\r\n\r\n    function registerDeed() public {\r\n        uint _deedId = deedNum++;\r\n        _mint(msg.sender, _deedId);\r\n        emit DeedRegistered(msg.sender, _deedId);\r\n    }\r\n\r\n    function getDeedId() public view returns (uint256) {\r\n        return deedNum - 1;\r\n    }\r\n}",
  "sourcePath": "E:\\ckb\\dapp\\eth-auction-dapp\\contracts\\DeedRepository.sol",
  "compiler": {
    "name": "solc",
    "version": "0.8.9+commit.e5eed63a.Emscripten.clang"
  },
  "schemaVersion": "3.4.3",
  "updatedAt": "2021-10-11T09:48:50.293Z",
  "networkType": "ethereum",
  "devdoc": {
    "kind": "dev",
    "methods": {
      "approve(address,uint256)": {
        "details": "See {IERC721-approve}."
      },
      "balanceOf(address)": {
        "details": "See {IERC721-balanceOf}."
      },
      "getApproved(uint256)": {
        "details": "See {IERC721-getApproved}."
      },
      "isApprovedForAll(address,address)": {
        "details": "See {IERC721-isApprovedForAll}."
      },
      "name()": {
        "details": "See {IERC721Metadata-name}."
      },
      "ownerOf(uint256)": {
        "details": "See {IERC721-ownerOf}."
      },
      "safeTransferFrom(address,address,uint256)": {
        "details": "See {IERC721-safeTransferFrom}."
      },
      "safeTransferFrom(address,address,uint256,bytes)": {
        "details": "See {IERC721-safeTransferFrom}."
      },
      "setApprovalForAll(address,bool)": {
        "details": "See {IERC721-setApprovalForAll}."
      },
      "supportsInterface(bytes4)": {
        "details": "See {IERC165-supportsInterface}."
      },
      "symbol()": {
        "details": "See {IERC721Metadata-symbol}."
      },
      "tokenURI(uint256)": {
        "details": "See {IERC721Metadata-tokenURI}."
      },
      "transferFrom(address,address,uint256)": {
        "details": "See {IERC721-transferFrom}."
      }
    },
    "version": 1
  },
  "userdoc": {
    "kind": "user",
    "methods": {},
    "version": 1
  }
}